{
  "contractName": "ArborVote",
  "abi": [
    {
      "inputs": [
        {
          "internalType": "string",
          "name": "_text",
          "type": "string"
        }
      ],
      "stateMutability": "nonpayable",
      "type": "constructor"
    },
    {
      "anonymous": false,
      "inputs": [
        {
          "indexed": true,
          "internalType": "address",
          "name": "entity",
          "type": "address"
        },
        {
          "indexed": false,
          "internalType": "uint8",
          "name": "argumentId",
          "type": "uint8"
        },
        {
          "indexed": false,
          "internalType": "uint8",
          "name": "voteStrength",
          "type": "uint8"
        }
      ],
      "name": "Voted",
      "type": "event"
    },
    {
      "stateMutability": "nonpayable",
      "type": "fallback"
    },
    {
      "inputs": [],
      "name": "INITIALVOTETOKENS",
      "outputs": [
        {
          "internalType": "uint8",
          "name": "",
          "type": "uint8"
        }
      ],
      "stateMutability": "view",
      "type": "function",
      "constant": true
    },
    {
      "inputs": [
        {
          "internalType": "uint8",
          "name": "",
          "type": "uint8"
        }
      ],
      "name": "arguments",
      "outputs": [
        {
          "internalType": "bool",
          "name": "isSupporting",
          "type": "bool"
        },
        {
          "internalType": "int256",
          "name": "votes",
          "type": "int256"
        },
        {
          "internalType": "address",
          "name": "creator",
          "type": "address"
        },
        {
          "internalType": "uint8",
          "name": "ownId",
          "type": "uint8"
        },
        {
          "internalType": "uint8",
          "name": "parentId",
          "type": "uint8"
        },
        {
          "internalType": "string",
          "name": "text",
          "type": "string"
        },
        {
          "internalType": "uint8",
          "name": "unfinalizedChildCount",
          "type": "uint8"
        },
        {
          "internalType": "int256",
          "name": "accumulatedChildVotes",
          "type": "int256"
        },
        {
          "internalType": "bool",
          "name": "isFinalized",
          "type": "bool"
        }
      ],
      "stateMutability": "view",
      "type": "function",
      "constant": true
    },
    {
      "inputs": [],
      "name": "argumentsCount",
      "outputs": [
        {
          "internalType": "uint8",
          "name": "",
          "type": "uint8"
        }
      ],
      "stateMutability": "view",
      "type": "function",
      "constant": true
    },
    {
      "inputs": [],
      "name": "countingStartTime",
      "outputs": [
        {
          "internalType": "uint256",
          "name": "",
          "type": "uint256"
        }
      ],
      "stateMutability": "view",
      "type": "function",
      "constant": true
    },
    {
      "inputs": [],
      "name": "currentStage",
      "outputs": [
        {
          "internalType": "enum ArborVote.Stage",
          "name": "",
          "type": "uint8"
        }
      ],
      "stateMutability": "view",
      "type": "function",
      "constant": true
    },
    {
      "inputs": [],
      "name": "debatingStartTime",
      "outputs": [
        {
          "internalType": "uint256",
          "name": "",
          "type": "uint256"
        }
      ],
      "stateMutability": "view",
      "type": "function",
      "constant": true
    },
    {
      "inputs": [
        {
          "internalType": "address",
          "name": "",
          "type": "address"
        }
      ],
      "name": "voters",
      "outputs": [
        {
          "internalType": "uint8",
          "name": "voteTokens",
          "type": "uint8"
        },
        {
          "internalType": "bool",
          "name": "joined",
          "type": "bool"
        }
      ],
      "stateMutability": "view",
      "type": "function",
      "constant": true
    },
    {
      "inputs": [],
      "name": "votingStartTime",
      "outputs": [
        {
          "internalType": "uint256",
          "name": "",
          "type": "uint256"
        }
      ],
      "stateMutability": "view",
      "type": "function",
      "constant": true
    },
    {
      "stateMutability": "payable",
      "type": "receive",
      "payable": true
    },
    {
      "inputs": [],
      "name": "updateStage",
      "outputs": [],
      "stateMutability": "nonpayable",
      "type": "function"
    },
    {
      "inputs": [],
      "name": "advanceStage",
      "outputs": [],
      "stateMutability": "nonpayable",
      "type": "function"
    },
    {
      "inputs": [
        {
          "internalType": "uint8",
          "name": "_parentId",
          "type": "uint8"
        },
        {
          "internalType": "string",
          "name": "_text",
          "type": "string"
        },
        {
          "internalType": "bool",
          "name": "_supporting",
          "type": "bool"
        }
      ],
      "name": "addArgument",
      "outputs": [],
      "stateMutability": "nonpayable",
      "type": "function"
    },
    {
      "inputs": [],
      "name": "finalizeLeaves",
      "outputs": [],
      "stateMutability": "nonpayable",
      "type": "function"
    },
    {
      "inputs": [],
      "name": "getVoteTokens",
      "outputs": [
        {
          "internalType": "uint8",
          "name": "",
          "type": "uint8"
        }
      ],
      "stateMutability": "view",
      "type": "function",
      "constant": true
    },
    {
      "inputs": [],
      "name": "join",
      "outputs": [],
      "stateMutability": "nonpayable",
      "type": "function"
    },
    {
      "inputs": [
        {
          "internalType": "uint8",
          "name": "id",
          "type": "uint8"
        },
        {
          "internalType": "uint8",
          "name": "voteStrength",
          "type": "uint8"
        }
      ],
      "name": "voteFor",
      "outputs": [],
      "stateMutability": "nonpayable",
      "type": "function"
    },
    {
      "inputs": [
        {
          "internalType": "uint8",
          "name": "id",
          "type": "uint8"
        },
        {
          "internalType": "uint8",
          "name": "voteStrength",
          "type": "uint8"
        }
      ],
      "name": "voteAgainst",
      "outputs": [],
      "stateMutability": "nonpayable",
      "type": "function"
    }
  ],
  "bytecode": "0x608060405260008060006101000a81548160ff021916908360ff16021790555060008060016101000a81548160ff021916908360048111156200003e57fe5b02179055503480156200005057600080fd5b5060405162001eb538038062001eb5833981810160405260208110156200007657600080fd5b81019080805160405193929190846401000000008211156200009757600080fd5b83820191506020820185811115620000ae57600080fd5b8251866001820283011164010000000082111715620000cc57600080fd5b8083526020830192505050908051906020019080838360005b8381101562000102578082015181840152602081019050620000e5565b50505050905090810190601f168015620001305780820380516001836020036101000a031916815260200191505b50604052505050604051806101200160405280600115158152602001600081526020013373ffffffffffffffffffffffffffffffffffffffff168152602001600060ff168152602001600060ff168152602001828152602001600060ff1681526020016000815260200160001515815250600460008060ff16815260200190815260200160002060008201518160000160006101000a81548160ff0219169083151502179055506020820151816001015560408201518160020160006101000a81548173ffffffffffffffffffffffffffffffffffffffff021916908373ffffffffffffffffffffffffffffffffffffffff16021790555060608201518160020160146101000a81548160ff021916908360ff16021790555060808201518160020160156101000a81548160ff021916908360ff16021790555060a08201518160030190805190602001906200028892919062000340565b5060c08201518160040160006101000a81548160ff021916908360ff16021790555060e082015181600501556101008201518160060160006101000a81548160ff02191690831515021790555090505060016000806101000a81548160ff021916908360ff1602179055506001600060016101000a81548160ff021916908360048111156200031357fe5b021790555042600181905550620151804201600281905550620151806002540160038190555050620003ef565b828054600181600116156101000203166002900490600052602060002090601f016020900481019282601f106200038357805160ff1916838001178555620003b4565b82800160010185558215620003b4579182015b82811115620003b357825182559160200191906001019062000396565b5b509050620003c39190620003c7565b5090565b620003ec91905b80821115620003e8576000816000905550600101620003ce565b5090565b90565b611ab680620003ff6000396000f3fe6080604052600436106100f75760003560e01c80637992934b1161008a578063b688a36311610059578063b688a36314610565578063c062f5781461057c578063c33f48fd14610593578063fc62d4c3146105aa57610101565b80637992934b1461035857806387913ddf1461048d578063a3ec138d146104be578063af5c45401461053457610101565b806325b73353116100c657806325b73353146102725780635bf5d54c1461028957806360865e4c146102c25780636bd0ea851461030d57610101565b806311b254f01461011057806319104b2f1461013b5780632019a60814610166578063235a7e3a1461019157610101565b3661010157600080fd5b34801561010d57600080fd5b50005b34801561011c57600080fd5b506101256105db565b6040518082815260200191505060405180910390f35b34801561014757600080fd5b506101506105e1565b6040518082815260200191505060405180910390f35b34801561017257600080fd5b5061017b6105e7565b6040518082815260200191505060405180910390f35b34801561019d57600080fd5b50610270600480360360608110156101b457600080fd5b81019080803560ff169060200190929190803590602001906401000000008111156101de57600080fd5b8201836020820111156101f057600080fd5b8035906020019184600183028401116401000000008311171561021257600080fd5b91908080601f016020809104026020016040519081016040528093929190818152602001838380828437600081840152601f19601f8201169050808301925050505050505091929192908035151590602001909291905050506105ed565b005b34801561027e57600080fd5b50610287610935565b005b34801561029557600080fd5b5061029e610a06565b604051808260048111156102ae57fe5b60ff16815260200191505060405180910390f35b3480156102ce57600080fd5b5061030b600480360360408110156102e557600080fd5b81019080803560ff169060200190929190803560ff169060200190929190505050610a19565b005b34801561031957600080fd5b506103566004803603604081101561033057600080fd5b81019080803560ff169060200190929190803560ff169060200190929190505050610ad3565b005b34801561036457600080fd5b506103946004803603602081101561037b57600080fd5b81019080803560ff169060200190929190505050610b8d565b604051808a1515151581526020018981526020018873ffffffffffffffffffffffffffffffffffffffff1673ffffffffffffffffffffffffffffffffffffffff1681526020018760ff1660ff1681526020018660ff1660ff168152602001806020018560ff1660ff16815260200184815260200183151515158152602001828103825286818151815260200191508051906020019080838360005b8381101561044a57808201518184015260208101905061042f565b50505050905090810190601f1680156104775780820380516001836020036101000a031916815260200191505b509a505050505050505050505060405180910390f35b34801561049957600080fd5b506104a2610cd4565b604051808260ff1660ff16815260200191505060405180910390f35b3480156104ca57600080fd5b5061050d600480360360208110156104e157600080fd5b81019080803573ffffffffffffffffffffffffffffffffffffffff169060200190929190505050610cd9565b604051808360ff1660ff168152602001821515151581526020019250505060405180910390f35b34801561054057600080fd5b50610549610d17565b604051808260ff1660ff16815260200191505060405180910390f35b34801561057157600080fd5b5061057a610d6e565b005b34801561058857600080fd5b50610591610f54565b005b34801561059f57600080fd5b506105a861104f565b005b3480156105b657600080fd5b506105bf61110a565b604051808260ff1660ff16815260200191505060405180910390f35b60015481565b60035481565b60025481565b6105f5610f54565b6001600481111561060257fe5b600060019054906101000a900460ff16600481111561061d57fe5b1461062757600080fd5b60ff80166000809054906101000a900460ff1660ff161115610694576040517f08c379a0000000000000000000000000000000000000000000000000000000008152600401808060200182810382526027815260200180611a5a6027913960400191505060405180910390fd5b6040518061012001604052808215158152602001600081526020013373ffffffffffffffffffffffffffffffffffffffff1681526020016000809054906101000a900460ff1660ff1681526020018460ff168152602001838152602001600060ff1681526020016000815260200160001515815250600460008060009054906101000a900460ff1660ff1660ff16815260200190815260200160002060008201518160000160006101000a81548160ff0219169083151502179055506020820151816001015560408201518160020160006101000a81548173ffffffffffffffffffffffffffffffffffffffff021916908373ffffffffffffffffffffffffffffffffffffffff16021790555060608201518160020160146101000a81548160ff021916908360ff16021790555060808201518160020160156101000a81548160ff021916908360ff16021790555060a08201518160030190805190602001906107ff92919061195a565b5060c08201518160040160006101000a81548160ff021916908360ff16021790555060e082015181600501556101008201518160060160006101000a81548160ff02191690831515021790555090505061087460016000809054906101000a900460ff1660ff1661111c90919063ffffffff16565b6000806101000a81548160ff021916908360ff1602179055506108cd6001600460008660ff1660ff16815260200190815260200160002060040160009054906101000a900460ff1660ff1661111c90919063ffffffff16565b600460008560ff1660ff16815260200190815260200160002060040160006101000a81548160ff021916908360ff160217905550600254421115610930576002600060016101000a81548160ff0219169083600481111561092a57fe5b02179055505b505050565b61093d610f54565b6003600481111561094a57fe5b600060019054906101000a900460ff16600481111561096557fe5b1461096f57600080fd5b60008090505b6000809054906101000a900460ff1660ff168160ff1610156109df576000600460008360ff1660ff16815260200190815260200160002060040160009054906101000a900460ff1660ff1614156109d2576109d18160006111aa565b5b8080600101915050610975565b506004600060016101000a81548160ff021916908360048111156109ff57fe5b0217905550565b600060019054906101000a900460ff1681565b610a21610f54565b610a2b82826114cf565b8060ff16600460008460ff1660ff1681526020019081526020016000206001015401600460008460ff1660ff168152602001908152602001600020600101819055503373ffffffffffffffffffffffffffffffffffffffff167f10df707b72348976d52c01397ca22f20bc37fe72ed43fe92c35f65a8f7891b368383604051808360ff1660ff1681526020018260ff1660ff1681526020019250505060405180910390a25050565b610adb610f54565b610ae582826114cf565b8060ff16600460008460ff1660ff1681526020019081526020016000206001015403600460008460ff1660ff168152602001908152602001600020600101819055503373ffffffffffffffffffffffffffffffffffffffff167f10df707b72348976d52c01397ca22f20bc37fe72ed43fe92c35f65a8f7891b368383604051808360ff1660ff1681526020018260ff1660ff1681526020019250505060405180910390a25050565b60046020528060005260406000206000915090508060000160009054906101000a900460ff16908060010154908060020160009054906101000a900473ffffffffffffffffffffffffffffffffffffffff16908060020160149054906101000a900460ff16908060020160159054906101000a900460ff1690806003018054600181600116156101000203166002900480601f016020809104026020016040519081016040528092919081815260200182805460018160011615610100020316600290048015610c9e5780601f10610c7357610100808354040283529160200191610c9e565b820191906000526020600020905b815481529060010190602001808311610c8157829003601f168201915b5050505050908060040160009054906101000a900460ff16908060050154908060060160009054906101000a900460ff16905089565b600c81565b60056020528060005260406000206000915090508060000160009054906101000a900460ff16908060000160019054906101000a900460ff16905082565b6000600560003373ffffffffffffffffffffffffffffffffffffffff1673ffffffffffffffffffffffffffffffffffffffff16815260200190815260200160002060000160009054906101000a900460ff16905090565b610d76610f54565b60016004811115610d8357fe5b600060019054906101000a900460ff166004811115610d9e57fe5b1480610dcf575060026004811115610db257fe5b600060019054906101000a900460ff166004811115610dcd57fe5b145b610dd857600080fd5b600560003373ffffffffffffffffffffffffffffffffffffffff1673ffffffffffffffffffffffffffffffffffffffff16815260200190815260200160002060000160019054906101000a900460ff1615610e9b576040517f08c379a000000000000000000000000000000000000000000000000000000000815260040180806020018281038252600f8152602001807f4a6f696e656420616c72656164792e000000000000000000000000000000000081525060200191505060405180910390fd5b6001600560003373ffffffffffffffffffffffffffffffffffffffff1673ffffffffffffffffffffffffffffffffffffffff16815260200190815260200160002060000160016101000a81548160ff021916908315150217905550600c600560003373ffffffffffffffffffffffffffffffffffffffff1673ffffffffffffffffffffffffffffffffffffffff16815260200190815260200160002060000160006101000a81548160ff021916908360ff160217905550565b600354421115610f87576003600060016101000a81548160ff02191690836004811115610f7d57fe5b021790555061104d565b60025442118015610fbd575060026004811115610fa057fe5b600060019054906101000a900460ff166004811115610fbb57fe5b105b15610feb576002600060016101000a81548160ff02191690836004811115610fe157fe5b021790555061104c565b6001544211801561102157506001600481111561100457fe5b600060019054906101000a900460ff16600481111561101f57fe5b105b1561104b576001600060016101000a81548160ff0219169083600481111561104557fe5b02179055505b5b5b565b6001600481111561105c57fe5b600060019054906101000a900460ff16600481111561107757fe5b14156110ad57426002819055506002600060016101000a81548160ff021916908360048111156110a357fe5b0217905550611108565b600260048111156110ba57fe5b600060019054906101000a900460ff1660048111156110d557fe5b141561110757426003819055506003600060016101000a81548160ff0219169083600481111561110157fe5b02179055505b5b565b6000809054906101000a900460ff1681565b60008082840190508360ff168160ff1610156111a0576040517f08c379a000000000000000000000000000000000000000000000000000000000815260040180806020018281038252601b8152602001807f536166654d6174683a206164646974696f6e206f766572666c6f77000000000081525060200191505060405180910390fd5b8091505092915050565b80600460008460ff1660ff168152602001908152602001600020600501600082825401925050819055506001600460008460ff1660ff16815260200190815260200160002060040160009054906101000a900460ff1660ff161115611282576112496001600460008560ff1660ff16815260200190815260200160002060040160009054906101000a900460ff1660ff1661164390919063ffffffff16565b600460008460ff1660ff16815260200190815260200160002060040160006101000a81548160ff021916908360ff1602179055506112ee565b6000600460008460ff1660ff16815260200190815260200160002060040160006101000a81548160ff021916908360ff1602179055506001600460008460ff1660ff16815260200190815260200160002060060160006101000a81548160ff0219169083151502179055505b6000600460008460ff1660ff16815260200190815260200160002060020160149054906101000a900460ff1660ff16141561135a576001600460008060ff16815260200190815260200160002060060160006101000a81548160ff0219169083151502179055506114cb565b6000600460008460ff1660ff16815260200190815260200160002060040160009054906101000a900460ff1660ff1614156114ca576001600460008460ff1660ff16815260200190815260200160002060060160006101000a81548160ff021916908315150217905550600081600460008560ff1660ff16815260200190815260200160002060010154019050600081131561149357600460008460ff1660ff16815260200190815260200160002060000160009054906101000a900460ff161561145757611452600460008560ff1660ff16815260200190815260200160002060020160159054906101000a900460ff16826111aa565b61148e565b61148d600460008560ff1660ff16815260200190815260200160002060020160159054906101000a900460ff16826000036111aa565b5b6114c8565b6114c7600460008560ff1660ff16815260200190815260200160002060020160159054906101000a900460ff1660006111aa565b5b505b5b5050565b60008260ff16141561152c576040517f08c379a0000000000000000000000000000000000000000000000000000000008152600401808060200182810382526033815260200180611a276033913960400191505060405180910390fd5b6002600481111561153957fe5b600060019054906101000a900460ff16600481111561155457fe5b1461155e57600080fd5b60011515600560003373ffffffffffffffffffffffffffffffffffffffff1673ffffffffffffffffffffffffffffffffffffffff16815260200190815260200160002060000160019054906101000a900460ff16151514611627576040517f08c379a00000000000000000000000000000000000000000000000000000000081526004018080602001828103825260158152602001807f566f746572206d757374206a6f696e206669727374000000000000000000000081525060200191505060405180910390fd5b60006116328261168d565b905061163e3382611706565b505050565b600061168583836040518060400160405280601e81526020017f536166654d6174683a207375627472616374696f6e206f766572666c6f770000815250611894565b905092915050565b600060018260ff16101580156116a7575060038260ff1611155b6116fc576040517f08c379a0000000000000000000000000000000000000000000000000000000008152600401808060200182810382526027815260200180611a006027913960400191505060405180910390fd5b8182029050919050565b8060ff16600560008473ffffffffffffffffffffffffffffffffffffffff1673ffffffffffffffffffffffffffffffffffffffff16815260200190815260200160002060000160009054906101000a900460ff1660ff1610156117d1576040517f08c379a00000000000000000000000000000000000000000000000000000000081526004018080602001828103825260188152602001807f496e73756666696369656e7420766f746520746f6b656e73000000000000000081525060200191505060405180910390fd5b61183681600560008573ffffffffffffffffffffffffffffffffffffffff1673ffffffffffffffffffffffffffffffffffffffff16815260200190815260200160002060000160009054906101000a900460ff1660ff1661164390919063ffffffff16565b600560008473ffffffffffffffffffffffffffffffffffffffff1673ffffffffffffffffffffffffffffffffffffffff16815260200190815260200160002060000160006101000a81548160ff021916908360ff1602179055505050565b60008360ff168360ff1611158290611947576040517f08c379a00000000000000000000000000000000000000000000000000000000081526004018080602001828103825283818151815260200191508051906020019080838360005b8381101561190c5780820151818401526020810190506118f1565b50505050905090810190601f1680156119395780820380516001836020036101000a031916815260200191505b509250505060405180910390fd5b5060008385039050809150509392505050565b828054600181600116156101000203166002900490600052602060002090601f016020900481019282601f1061199b57805160ff19168380011785556119c9565b828001600101855582156119c9579182015b828111156119c85782518255916020019190600101906119ad565b5b5090506119d691906119da565b5090565b6119fc91905b808211156119f85760008160009055506001016119e0565b5090565b9056fe566f74696e6720706f7765722063616e206f6e6c792072616e67652066726f6d203120746f2033566f74696e67206469726563746c79206f6e2074686520726f6f7420617267756d656e742069732070726f686962697465642e54686572652063616e2774206265206d6f7265207468616e2032353520617267756d656e74732ea2646970667358221220bc667643ab69516582d96547eb27748748cd99daa1ea39c9617ac7915453eb5464736f6c63430006080033",
  "immutableReferences": {},
  "source": "//SPDX-License-Identifier: MIT\npragma solidity ^0.6.8;\n\nimport \"./SafeMath.sol\";\n\ncontract ArborVote {\n\n    using SafeMath for uint8;\n\n    uint8 public argumentsCount = 0;\n\n    enum Stage {\n        Init,\n        Debating,\n        Voting,\n        Counting,\n        Done\n    }\n    Stage public currentStage = Stage.Init;\n\n    uint public debatingStartTime;\n    uint public votingStartTime;\n    uint public countingStartTime;\n\n    uint constant stageDurationBaseValue = 1 days;\n\n    constructor (string memory _text) public {\n        arguments[0] = Argument({ // Argument 0 is the proposal itself\n            isSupporting: true, // makes no sense for the proposal - just set to true\n            votes: 0,\n            creator: msg.sender,\n            ownId: 0,\n            parentId: 0,\n            text: _text,\n            unfinalizedChildCount: 0,\n            accumulatedChildVotes: 0,\n            isFinalized: false\n        });\n        argumentsCount = 1; // start counting at one\n\n        // Define the stage start times\n        currentStage = Stage.Debating;\n        debatingStartTime = now;\n        votingStartTime = now + stageDurationBaseValue;\n        countingStartTime = votingStartTime + stageDurationBaseValue;\n    }\n\n    function updateStage() public {\n        if (now > countingStartTime)\n            currentStage = Stage.Counting;\n        else if (now > votingStartTime && currentStage < Stage.Voting) // prevents going back\n            currentStage = Stage.Voting;\n        else if (now > debatingStartTime && currentStage < Stage.Debating)\n            currentStage = Stage.Debating;\n    }\n\n    /**\n     * @notice Advance the stage of debate. Remove method in Production.\n     */\n    function advanceStage() public {\n        if (currentStage == Stage.Debating) {\n            votingStartTime = now;\n            currentStage = Stage.Voting;\n        }\n        else if (currentStage == Stage.Voting) {\n            countingStartTime = now;\n            currentStage = Stage.Counting;\n        }\n    }\n\n    //Each struct represents a node in tree\n    struct Argument {\n        bool isSupporting;\n        int votes;\n\n        address creator;\n        uint8 ownId;\n        uint8 parentId;\n        string text;\n        uint8 unfinalizedChildCount;\n        int accumulatedChildVotes;  //child votes are zero or higher but we are keeping it int because it's easier\n        bool isFinalized;\n    }\n    mapping ( uint8 => Argument ) public arguments;\n\n    // Getters\n    function addArgument(uint8 _parentId, string memory _text, bool _supporting) public {\n        updateStage();\n        require(currentStage == Stage.Debating);\n        require(argumentsCount <= uint8(255), \"There can't be more than 255 arguments.\");\n\n        // Create a child node and add it to the mapping\n        arguments[argumentsCount] = Argument({\n            isSupporting: _supporting,\n            votes: 0,\n            creator: msg.sender,\n            ownId: argumentsCount,\n            parentId: _parentId,\n            text: _text,\n            unfinalizedChildCount: 0,\n            accumulatedChildVotes: 0,\n            isFinalized: false\n            }\n        );\n        \n        argumentsCount = argumentsCount.add(1); //increment afterwards because the proposal itself has index zero\n\n        // change parent state accordingly\n        arguments[_parentId].unfinalizedChildCount = arguments[_parentId].unfinalizedChildCount.add(1);\n\n        if (now > votingStartTime)\n            currentStage = Stage.Voting;\n    }\n\n    function finalizeLeaves() public  {\n        updateStage();\n        require(currentStage == Stage.Counting);\n\n        for (uint8 i = 0; i < argumentsCount; i++) {\n            if(arguments[i].unfinalizedChildCount == 0)\n                finalize(i,0);\n        }\n        currentStage = Stage.Done;\n    }\n\n\n    /* Finalizes the argument tree up to the highest possible parent argument and stops.\n     * It stops, if the parent arguments contains children that haven't been finalized.\n     * The finalize method can only be called from leaves (unfinalizedChildCount == 0) to ensure traversal from the bottom to the top.\n     */\n    function finalize(uint8 i, int accumulatedChildVotes) internal {\n\n        arguments[i].accumulatedChildVotes += accumulatedChildVotes;\n        if(arguments[i].unfinalizedChildCount > 1)\n            arguments[i].unfinalizedChildCount = arguments[i].unfinalizedChildCount.sub(1);\n        else {\n            arguments[i].unfinalizedChildCount = 0; // all children are finalized\n            arguments[i].isFinalized = true;\n        }\n        // The Argument is then equivalent to a leaf and its cumulative vote weight can be counted for the parent argument.\n\n        if(arguments[i].ownId == 0) { // stop if root 0 is reached.\n            arguments[0].isFinalized = true;\n        } else if(arguments[i].unfinalizedChildCount == 0) { // all children were removed due to finalization\n            arguments[i].isFinalized = true;\n            int accumulatedVotes = arguments[i].votes+int(accumulatedChildVotes);\n\n            if(accumulatedVotes > 0) { // argument is better than neutral\n                if(arguments[i].isSupporting){\n                    finalize(arguments[i].parentId, accumulatedVotes);\n                } else {\n                    finalize(arguments[i].parentId, -accumulatedVotes);\n                }\n            } else { // Don't count bad arguments\n                finalize(arguments[i].parentId, 0);\n            }\n        }\n    }\n\n    /********** VOTING RELATED ************/\n\n    uint8 public constant INITIALVOTETOKENS = 12;\n\n    struct Voter {\n        uint8 voteTokens;\n        bool joined;\n    }\n    mapping (address => Voter) public voters;\n\n    function getVoteTokens() public view returns (uint8) {\n        return voters[msg.sender].voteTokens;\n    }\n\n    function join() external {\n        updateStage();\n        require(currentStage == Stage.Debating || currentStage == Stage.Voting );\n\n        require(!voters[msg.sender].joined, \"Joined already.\");\n        voters[msg.sender].joined = true;\n        voters[msg.sender].voteTokens = INITIALVOTETOKENS;\n    }\n\n    function payForVote(address voterAddr, uint8 cost) internal {\n        require(voters[voterAddr].voteTokens >= cost, \"Insufficient vote tokens\");\n        voters[voterAddr].voteTokens = voters[voterAddr].voteTokens.sub(cost);\n    }\n\n    function quadraticCost(uint8 voteStrength) internal pure returns(uint8) {\n        // quadratic voting\n        require(voteStrength >= 1 && voteStrength <= 3, \"Voting power can only range from 1 to 3\");\n\n        return voteStrength * voteStrength;\n    }\n\n    /// Events\n    event Voted(address indexed entity, uint8 argumentId, uint8 voteStrength);\n\n    function prepareVotum(uint8 id, uint8 voteStrength) internal {\n        require(id != 0, \"Voting directly on the root argument is prohibited.\");\n        require(currentStage == Stage.Voting);\n        require(voters[msg.sender].joined == true, \"Voter must join first\");\n\n        // pay\n        uint8 cost = quadraticCost(voteStrength);\n        payForVote(msg.sender, cost);\n    }\n\n    /**\n     * @notice Vote for argument `id` with vote strength `voteStrength`\n     * @param id ID of the argument to vote for\n     */\n    function voteFor(uint8 id, uint8 voteStrength) public {\n        updateStage();\n        prepareVotum(id, voteStrength);\n        arguments[id].votes = arguments[id].votes + voteStrength;\n        emit Voted(msg.sender, id, voteStrength);\n    }\n\n    /**\n     * @notice Vote against argument `id` with vote strength `voteStrength`\n     * @param id ID of the argument to vote against\n     */\n    function voteAgainst(uint8 id, uint8 voteStrength) public {\n        updateStage();\n        prepareVotum(id, voteStrength);\n        arguments[id].votes = arguments[id].votes - voteStrength;\n        emit Voted(msg.sender, id, voteStrength);\n    }\n\n    /* @notice refuses ether sent with no txData\n     */\n    receive() external payable { revert(); }\n\n    /* @notice refuses ether sent with txData that\n     * does not match any function signature in the contract\n     */\n    fallback() external {}\n}\n",
  "sourcePath": "/media/dhiraj/code/ethereum/ArborVote/contracts/ArborVote.sol",
  "compiler": {
    "name": "solc",
    "version": "0.6.8+commit.0bbfe453.Emscripten.clang"
  },
  "schemaVersion": "3.1.0",
  "updatedAt": "2020-07-05T10:34:30.581Z",
  "networkType": "ethereum",
  "devdoc": {
    "methods": {
      "voteAgainst(uint8,uint8)": {
        "params": {
          "id": "ID of the argument to vote against"
        }
      },
      "voteFor(uint8,uint8)": {
        "params": {
          "id": "ID of the argument to vote for"
        }
      }
    }
  },
  "userdoc": {
    "methods": {
      "advanceStage()": {
        "notice": "Advance the stage of debate. Remove method in Production."
      },
      "voteAgainst(uint8,uint8)": {
        "notice": "Vote against argument `id` with vote strength `voteStrength`"
      },
      "voteFor(uint8,uint8)": {
        "notice": "Vote for argument `id` with vote strength `voteStrength`"
      }
    }
  }
}