{
  "contractName": "ArborVote",
  "abi": [
    {
      "inputs": [
        {
          "internalType": "string",
          "name": "_text",
          "type": "string"
        }
      ],
      "stateMutability": "nonpayable",
      "type": "constructor"
    },
    {
      "anonymous": false,
      "inputs": [
        {
          "indexed": true,
          "internalType": "address",
          "name": "entity",
          "type": "address"
        },
        {
          "indexed": false,
          "internalType": "uint8",
          "name": "argumentId",
          "type": "uint8"
        },
        {
          "indexed": false,
          "internalType": "uint8",
          "name": "voteStrength",
          "type": "uint8"
        }
      ],
      "name": "Voted",
      "type": "event"
    },
    {
      "inputs": [],
      "name": "INITIALVOTETOKENS",
      "outputs": [
        {
          "internalType": "uint8",
          "name": "",
          "type": "uint8"
        }
      ],
      "stateMutability": "view",
      "type": "function",
      "constant": true
    },
    {
      "inputs": [
        {
          "internalType": "uint8",
          "name": "",
          "type": "uint8"
        }
      ],
      "name": "arguments",
      "outputs": [
        {
          "internalType": "bool",
          "name": "supporting",
          "type": "bool"
        },
        {
          "internalType": "int256",
          "name": "votes",
          "type": "int256"
        },
        {
          "internalType": "address",
          "name": "creator",
          "type": "address"
        },
        {
          "internalType": "uint8",
          "name": "ownId",
          "type": "uint8"
        },
        {
          "internalType": "uint8",
          "name": "parentId",
          "type": "uint8"
        },
        {
          "internalType": "string",
          "name": "text",
          "type": "string"
        },
        {
          "internalType": "uint256",
          "name": "numberOfChildren",
          "type": "uint256"
        },
        {
          "internalType": "int256",
          "name": "childVotes",
          "type": "int256"
        },
        {
          "internalType": "bool",
          "name": "isFinalized",
          "type": "bool"
        }
      ],
      "stateMutability": "view",
      "type": "function",
      "constant": true
    },
    {
      "inputs": [],
      "name": "argumentsCount",
      "outputs": [
        {
          "internalType": "uint8",
          "name": "",
          "type": "uint8"
        }
      ],
      "stateMutability": "view",
      "type": "function",
      "constant": true
    },
    {
      "inputs": [],
      "name": "stage",
      "outputs": [
        {
          "internalType": "enum ArborVote.Stage",
          "name": "",
          "type": "uint8"
        }
      ],
      "stateMutability": "view",
      "type": "function",
      "constant": true
    },
    {
      "inputs": [],
      "name": "startTime",
      "outputs": [
        {
          "internalType": "uint256",
          "name": "",
          "type": "uint256"
        }
      ],
      "stateMutability": "view",
      "type": "function",
      "constant": true
    },
    {
      "inputs": [
        {
          "internalType": "address",
          "name": "",
          "type": "address"
        }
      ],
      "name": "voters",
      "outputs": [
        {
          "internalType": "uint8",
          "name": "voteTokens",
          "type": "uint8"
        },
        {
          "internalType": "bool",
          "name": "joined",
          "type": "bool"
        }
      ],
      "stateMutability": "view",
      "type": "function",
      "constant": true
    },
    {
      "inputs": [
        {
          "internalType": "uint8",
          "name": "id",
          "type": "uint8"
        }
      ],
      "name": "getVotes",
      "outputs": [
        {
          "internalType": "int256",
          "name": "",
          "type": "int256"
        }
      ],
      "stateMutability": "view",
      "type": "function",
      "constant": true
    },
    {
      "inputs": [
        {
          "internalType": "uint8",
          "name": "id",
          "type": "uint8"
        }
      ],
      "name": "getText",
      "outputs": [
        {
          "internalType": "string",
          "name": "",
          "type": "string"
        }
      ],
      "stateMutability": "view",
      "type": "function",
      "constant": true
    },
    {
      "inputs": [
        {
          "internalType": "uint8",
          "name": "_parentId",
          "type": "uint8"
        },
        {
          "internalType": "string",
          "name": "_text",
          "type": "string"
        },
        {
          "internalType": "bool",
          "name": "_supporting",
          "type": "bool"
        }
      ],
      "name": "addArgument",
      "outputs": [],
      "stateMutability": "payable",
      "type": "function",
      "payable": true
    },
    {
      "inputs": [],
      "name": "finalizeLeafs",
      "outputs": [],
      "stateMutability": "nonpayable",
      "type": "function"
    },
    {
      "inputs": [],
      "name": "join",
      "outputs": [],
      "stateMutability": "nonpayable",
      "type": "function"
    },
    {
      "inputs": [
        {
          "internalType": "uint8",
          "name": "id",
          "type": "uint8"
        },
        {
          "internalType": "uint8",
          "name": "voteStrength",
          "type": "uint8"
        }
      ],
      "name": "voteFor",
      "outputs": [],
      "stateMutability": "nonpayable",
      "type": "function"
    },
    {
      "inputs": [
        {
          "internalType": "uint8",
          "name": "id",
          "type": "uint8"
        },
        {
          "internalType": "uint8",
          "name": "voteStrength",
          "type": "uint8"
        }
      ],
      "name": "voteAgainst",
      "outputs": [],
      "stateMutability": "nonpayable",
      "type": "function"
    },
    {
      "inputs": [],
      "name": "advanceStage",
      "outputs": [],
      "stateMutability": "nonpayable",
      "type": "function"
    }
  ],
  "bytecode": "0x608060405260008060006101000a81548160ff021916908360ff1602179055506000600260006101000a81548160ff021916908360038111156200003f57fe5b02179055503480156200005157600080fd5b5060405162001b0838038062001b08833981810160405260208110156200007757600080fd5b81019080805160405193929190846401000000008211156200009857600080fd5b83820191506020820185811115620000af57600080fd5b8251866001820283011164010000000082111715620000cd57600080fd5b8083526020830192505050908051906020019080838360005b8381101562000103578082015181840152602081019050620000e6565b50505050905090810190601f168015620001315780820380516001836020036101000a031916815260200191505b50604052505050604051806101200160405280600115158152602001600081526020013373ffffffffffffffffffffffffffffffffffffffff168152602001600060ff168152602001600060ff168152602001828152602001600081526020016000815260200160001515815250600360008060ff16815260200190815260200160002060008201518160000160006101000a81548160ff0219169083151502179055506020820151816001015560408201518160020160006101000a81548173ffffffffffffffffffffffffffffffffffffffff021916908373ffffffffffffffffffffffffffffffffffffffff16021790555060608201518160020160146101000a81548160ff021916908360ff16021790555060808201518160020160156101000a81548160ff021916908360ff16021790555060a0820151816003019080519060200190620002869291906200030d565b5060c0820151816004015560e082015181600501556101008201518160060160006101000a81548160ff02191690831515021790555090505060016000806101000a81548160ff021916908360ff1602179055506001600260006101000a81548160ff02191690836003811115620002fa57fe5b02179055504260018190555050620003bc565b828054600181600116156101000203166002900490600052602060002090601f016020900481019282601f106200035057805160ff191683800117855562000381565b8280016001018555821562000381579182015b828111156200038057825182559160200191906001019062000363565b5b50905062000390919062000394565b5090565b620003b991905b80821115620003b55760008160009055506001016200039b565b5090565b90565b61173c80620003cc6000396000f3fe6080604052600436106100dd5760003560e01c8063a3ec138d1161007f578063bd98c31911610059578063bd98c3191461056d578063c040e6b814610584578063c33f48fd146105bd578063fc62d4c3146105d4576100dd565b8063a3ec138d14610429578063affd77291461049f578063b688a36314610556576100dd565b806378e97925116100bb57806378e979251461024c5780637992934b1461027757806387913ddf146103a65780638953bb72146103d7576100dd565b8063235a7e3a146100e257806360865e4c146101b65780636bd0ea8514610201575b600080fd5b6101b4600480360360608110156100f857600080fd5b81019080803560ff1690602001909291908035906020019064010000000081111561012257600080fd5b82018360208201111561013457600080fd5b8035906020019184600183028401116401000000008311171561015657600080fd5b91908080601f016020809104026020016040519081016040528093929190818152602001838380828437600081840152601f19601f820116905080830192505050505050509192919290803515159060200190929190505050610605565b005b3480156101c257600080fd5b506101ff600480360360408110156101d957600080fd5b81019080803560ff169060200190929190803560ff1690602001909291905050506108e0565b005b34801561020d57600080fd5b5061024a6004803603604081101561022457600080fd5b81019080803560ff169060200190929190803560ff169060200190929190505050610ac0565b005b34801561025857600080fd5b50610261610ca0565b6040518082815260200191505060405180910390f35b34801561028357600080fd5b506102b36004803603602081101561029a57600080fd5b81019080803560ff169060200190929190505050610ca6565b604051808a1515151581526020018981526020018873ffffffffffffffffffffffffffffffffffffffff1673ffffffffffffffffffffffffffffffffffffffff1681526020018760ff1660ff1681526020018660ff1660ff1681526020018060200185815260200184815260200183151515158152602001828103825286818151815260200191508051906020019080838360005b83811015610363578082015181840152602081019050610348565b50505050905090810190601f1680156103905780820380516001836020036101000a031916815260200191505b509a505050505050505050505060405180910390f35b3480156103b257600080fd5b506103bb610de0565b604051808260ff1660ff16815260200191505060405180910390f35b3480156103e357600080fd5b50610413600480360360208110156103fa57600080fd5b81019080803560ff169060200190929190505050610de5565b6040518082815260200191505060405180910390f35b34801561043557600080fd5b506104786004803603602081101561044c57600080fd5b81019080803573ffffffffffffffffffffffffffffffffffffffff169060200190929190505050610e0b565b604051808360ff1660ff168152602001821515151581526020019250505060405180910390f35b3480156104ab57600080fd5b506104db600480360360208110156104c257600080fd5b81019080803560ff169060200190929190505050610e49565b6040518080602001828103825283818151815260200191508051906020019080838360005b8381101561051b578082015181840152602081019050610500565b50505050905090810190601f1680156105485780820380516001836020036101000a031916815260200191505b509250505060405180910390f35b34801561056257600080fd5b5061056b610f07565b005b34801561057957600080fd5b506105826110ee565b005b34801561059057600080fd5b50610599611182565b604051808260038111156105a957fe5b60ff16815260200191505060405180910390f35b3480156105c957600080fd5b506105d2611195565b005b3480156105e057600080fd5b506105e9611253565b604051808260ff1660ff16815260200191505060405180910390f35b6001600381111561061257fe5b600260009054906101000a900460ff16600381111561062d57fe5b1461063757600080fd5b60ff80166000809054906101000a900460ff1660ff1611156106a4576040517f08c379a000000000000000000000000000000000000000000000000000000000815260040180806020018281038252602a8152602001806116dd602a913960400191505060405180910390fd5b6040518061012001604052808215158152602001600081526020013373ffffffffffffffffffffffffffffffffffffffff1681526020016000809054906101000a900460ff1660ff1681526020018460ff168152602001838152602001600081526020016000815260200160001515815250600360008060009054906101000a900460ff1660ff1660ff16815260200190815260200160002060008201518160000160006101000a81548160ff0219169083151502179055506020820151816001015560408201518160020160006101000a81548173ffffffffffffffffffffffffffffffffffffffff021916908373ffffffffffffffffffffffffffffffffffffffff16021790555060608201518160020160146101000a81548160ff021916908360ff16021790555060808201518160020160156101000a81548160ff021916908360ff16021790555060a082015181600301908051906020019061080c929190611610565b5060c0820151816004015560e082015181600501556101008201518160060160006101000a81548160ff02191690831515021790555090505060008081819054906101000a900460ff168092919060010191906101000a81548160ff021916908360ff16021790555050600360008460ff1660ff16815260200190815260200160002060040160008154809291906001019190505550610258600154014211156108db5760028060006101000a81548160ff021916908360038111156108ce57fe5b0217905550426001819055505b505050565b600260038111156108ed57fe5b600260009054906101000a900460ff16600381111561090857fe5b1461091257600080fd5b60011515600460003373ffffffffffffffffffffffffffffffffffffffff1673ffffffffffffffffffffffffffffffffffffffff16815260200190815260200160002060000160019054906101000a900460ff161515146109db576040517f08c379a00000000000000000000000000000000000000000000000000000000081526004018080602001828103825260158152602001807f566f746572206d757374206a6f696e206669727374000000000000000000000081525060200191505060405180910390fd5b60006109e682611265565b90506109f233826112de565b8160ff16600360008560ff1660ff168152602001908152602001600020600101600082825401925050819055503373ffffffffffffffffffffffffffffffffffffffff167f10df707b72348976d52c01397ca22f20bc37fe72ed43fe92c35f65a8f7891b368484604051808360ff1660ff1681526020018260ff1660ff1681526020019250505060405180910390a261025860015401421115610abb576003600260006101000a81548160ff02191690836003811115610aae57fe5b0217905550426001819055505b505050565b60026003811115610acd57fe5b600260009054906101000a900460ff166003811115610ae857fe5b14610af257600080fd5b60011515600460003373ffffffffffffffffffffffffffffffffffffffff1673ffffffffffffffffffffffffffffffffffffffff16815260200190815260200160002060000160019054906101000a900460ff16151514610bbb576040517f08c379a00000000000000000000000000000000000000000000000000000000081526004018080602001828103825260158152602001807f566f746572206d757374206a6f696e206669727374000000000000000000000081525060200191505060405180910390fd5b6000610bc682611265565b9050610bd233826112de565b8160ff16600360008560ff1660ff168152602001908152602001600020600101600082825403925050819055503373ffffffffffffffffffffffffffffffffffffffff167f10df707b72348976d52c01397ca22f20bc37fe72ed43fe92c35f65a8f7891b368484604051808360ff1660ff1681526020018260ff1660ff1681526020019250505060405180910390a261025860015401421115610c9b576003600260006101000a81548160ff02191690836003811115610c8e57fe5b0217905550426001819055505b505050565b60015481565b60036020528060005260406000206000915090508060000160009054906101000a900460ff16908060010154908060020160009054906101000a900473ffffffffffffffffffffffffffffffffffffffff16908060020160149054906101000a900460ff16908060020160159054906101000a900460ff1690806003018054600181600116156101000203166002900480601f016020809104026020016040519081016040528092919081815260200182805460018160011615610100020316600290048015610db75780601f10610d8c57610100808354040283529160200191610db7565b820191906000526020600020905b815481529060010190602001808311610d9a57829003601f168201915b5050505050908060040154908060050154908060060160009054906101000a900460ff16905089565b600c81565b6000600360008360ff1660ff168152602001908152602001600020600101549050919050565b60046020528060005260406000206000915090508060000160009054906101000a900460ff16908060000160019054906101000a900460ff16905082565b6060600360008360ff1660ff1681526020019081526020016000206003018054600181600116156101000203166002900480601f016020809104026020016040519081016040528092919081815260200182805460018160011615610100020316600290048015610efb5780601f10610ed057610100808354040283529160200191610efb565b820191906000526020600020905b815481529060010190602001808311610ede57829003601f168201915b50505050509050919050565b60016003811115610f1457fe5b600260009054906101000a900460ff166003811115610f2f57fe5b14610f3957600080fd5b600460003373ffffffffffffffffffffffffffffffffffffffff1673ffffffffffffffffffffffffffffffffffffffff16815260200190815260200160002060000160019054906101000a900460ff1615610ffc576040517f08c379a000000000000000000000000000000000000000000000000000000000815260040180806020018281038252600f8152602001807f4a6f696e656420616c72656164792e000000000000000000000000000000000081525060200191505060405180910390fd5b6001600460003373ffffffffffffffffffffffffffffffffffffffff1673ffffffffffffffffffffffffffffffffffffffff16815260200190815260200160002060000160016101000a81548160ff021916908315150217905550600c600460003373ffffffffffffffffffffffffffffffffffffffff1673ffffffffffffffffffffffffffffffffffffffff16815260200190815260200160002060000160006101000a81548160ff021916908360ff160217905550610258600154014211156110ec5760028060006101000a81548160ff021916908360038111156110df57fe5b0217905550426001819055505b565b6003808111156110fa57fe5b600260009054906101000a900460ff16600381111561111557fe5b1461111f57600080fd5b60008090505b6000809054906101000a900460ff1660ff168160ff16101561117f576000600360008360ff1660ff1681526020019081526020016000206004015414156111725761117181600061141a565b5b8080600101915050611125565b50565b600260009054906101000a900460ff1681565b600160038111156111a257fe5b600260009054906101000a900460ff1660038111156111bd57fe5b14156111f25760028060006101000a81548160ff021916908360038111156111e157fe5b021790555042600181905550611251565b600260038111156111ff57fe5b600260009054906101000a900460ff16600381111561121a57fe5b1415611250576003600260006101000a81548160ff0219169083600381111561123f57fe5b021790555042600181905550611251565b5b565b6000809054906101000a900460ff1681565b600060018260ff161015801561127f575060038260ff1611155b6112d4576040517f08c379a00000000000000000000000000000000000000000000000000000000081526004018080602001828103825260278152602001806116b66027913960400191505060405180910390fd5b8182029050919050565b8060ff16600460008473ffffffffffffffffffffffffffffffffffffffff1673ffffffffffffffffffffffffffffffffffffffff16815260200190815260200160002060000160009054906101000a900460ff1660ff1610156113a9576040517f08c379a00000000000000000000000000000000000000000000000000000000081526004018080602001828103825260188152602001807f496e73756666696369656e7420766f746520746f6b656e73000000000000000081525060200191505060405180910390fd5b80600460008473ffffffffffffffffffffffffffffffffffffffff1673ffffffffffffffffffffffffffffffffffffffff16815260200190815260200160002060000160008282829054906101000a900460ff160392506101000a81548160ff021916908360ff1602179055505050565b80600360008460ff1660ff16815260200190815260200160002060050160008282540192505081905550600360008360ff1660ff16815260200190815260200160002060040160008154809291906001900391905055506000600360008460ff1660ff16815260200190815260200160002060020160149054906101000a900460ff1660ff1614156114ab5761160c565b6000600360008460ff1660ff16815260200190815260200160002060040154141561160b576001600360008460ff1660ff16815260200190815260200160002060060160006101000a81548160ff021916908315150217905550600081600360008560ff1660ff1681526020019081526020016000206001015401905060008113156115d457600360008460ff1660ff16815260200190815260200160002060000160009054906101000a900460ff161561159857611593600360008560ff1660ff16815260200190815260200160002060020160159054906101000a900460ff168261141a565b6115cf565b6115ce600360008560ff1660ff16815260200190815260200160002060020160159054906101000a900460ff168260000361141a565b5b611609565b611608600360008560ff1660ff16815260200190815260200160002060020160159054906101000a900460ff16600061141a565b5b505b5b5050565b828054600181600116156101000203166002900490600052602060002090601f016020900481019282601f1061165157805160ff191683800117855561167f565b8280016001018555821561167f579182015b8281111561167e578251825591602001919060010190611663565b5b50905061168c9190611690565b5090565b6116b291905b808211156116ae576000816000905550600101611696565b5090565b9056fe566f74696e6720706f7765722063616e206f6e6c792072616e67652066726f6d203120746f203354686572652063616e2774206265206d6f7265207468616e2032353520737562617267756d656e74732ea2646970667358221220a64c0fd6372b62476ecd20590ff0225f56046aaca8461b9de0f96ff75fbdf2f964736f6c63430006080033",
  "immutableReferences": {},
  "source": "//SPDX-License-Identifier: MIT\npragma solidity ^0.6.8;\n\ncontract ArborVote {\n    /// State\n    uint8 public argumentsCount = 0;\n\n    uint constant creationStageDuration = 10 minutes;\n    uint constant votingStageDuration = 10 minutes;\n\n    uint public startTime;\n    enum Stage {Init, Creation, Voting, Process}\n    Stage public stage = Stage.Init;\n\n    constructor (string memory _text) public {\n        arguments[0] = Argument({ // Argument 0 is the proposal itself\n            supporting: true, // makes no sense for the proposal - just set to true\n            votes: 0,\n            creator: msg.sender,\n            ownId: 0,\n            parentId: 0,\n            text: _text,\n            numberOfChildren: 0,\n            childVotes: 0,\n            isFinalized: false\n        });\n        argumentsCount = 1; // start counting at one\n        stage = Stage.Creation;\n        startTime = now;\n    }\n\n    //Each struct represents a node in tree\n    struct Argument {\n        bool supporting;\n        int votes;\n\n        address creator;\n        uint8 ownId;\n        uint8 parentId;\n        string text;\n        uint numberOfChildren;\n        int childVotes;  //child votes are zero or higher but we are keeping it int because it's easier\n        bool isFinalized;\n    }\n    mapping ( uint8 => Argument ) public arguments;\n\n    function getVotes(uint8 id) public view returns (int) {\n        return arguments[id].votes;\n    }\n\n    function getText(uint8 id) public view returns (string memory) {\n        return arguments[id].text;\n    }\n\n    function addArgument(uint8 _parentId, string memory _text, bool _supporting) public payable {\n        require(stage == Stage.Creation);\n        require(argumentsCount <= uint8(255), \"There can't be more than 255 subarguments.\");\n\n        // Create a child node and add it to the mapping\n        arguments[argumentsCount] = Argument({\n            supporting: _supporting,\n            votes: 0,\n            creator: msg.sender,\n            ownId: argumentsCount,\n            parentId: _parentId,\n            text: _text,\n            numberOfChildren: 0,\n            childVotes: 0,\n            isFinalized: false\n            }\n        );\n        \n        argumentsCount++; //increment after because the proposal itself has index zero\n\n        // change parent state accordingly\n        arguments[_parentId].numberOfChildren++;\n        if (now > (startTime+ creationStageDuration)) {stage = Stage.Voting; startTime = now;}\n    }\n\n    function finalizeLeafs() public  {\n        require(stage == Stage.Process);\n\n        for (uint8 i = 0; i < argumentsCount; i++) {\n            if(arguments[i].numberOfChildren == 0)\n                finalize(i,0);\n        }\n    }\n\n\n    // Finalizes the argument tree up to the largest possible node.\n    // Finalization requires all childs nodes to be finalized.\n    // The finalize method can only be called from leafs (numberOfChildren == 0) to ensure traversal from the bottom to the top.\n    function finalize(uint8 i, int childVotes) internal {\n\n        arguments[i].childVotes += childVotes;\n        arguments[i].numberOfChildren--;\n\n        if(arguments[i].ownId == 0) { // stop if argument 0 is reached.\n            return;\n        } else if(arguments[i].numberOfChildren == 0) { // all children were removed due to finalization\n            arguments[i].isFinalized = true;\n            int accumulatedVotes = arguments[i].votes+int(childVotes);\n\n            if(accumulatedVotes > 0) { // argument is better than neutral\n                if(arguments[i].supporting){\n                    finalize(arguments[i].parentId, accumulatedVotes);\n                } else {\n                    finalize(arguments[i].parentId, -accumulatedVotes);\n                }\n            } else { // Don't count bad arguments\n                finalize(arguments[i].parentId, 0);\n            }\n        }\n    }\n\n    /********** VOTING RELATED ************/\n\n    uint8 public constant INITIALVOTETOKENS = 12;\n\n    struct Voter {\n        uint8 voteTokens;\n        bool joined;\n    }\n    mapping (address => Voter) public voters;\n\n    function join() external {\n        require(stage == Stage.Creation); //|| stage == Stage.Voting );\n        require(!voters[msg.sender].joined, \"Joined already.\");\n        voters[msg.sender].joined = true;\n        voters[msg.sender].voteTokens = INITIALVOTETOKENS;\n\n        if (now > (startTime+ creationStageDuration)) {stage = Stage.Voting; startTime = now;}\n    }\n\n    function payForVote(address voterAddr, uint8 cost) internal {\n        require(voters[voterAddr].voteTokens >= cost, \"Insufficient vote tokens\");\n        voters[voterAddr].voteTokens -= cost;\n    }\n\n    function quadraticCost(uint8 voteStrength) internal pure returns(uint8) {\n        // quadratic voting\n        require(voteStrength >= 1 && voteStrength <= 3, \"Voting power can only range from 1 to 3\");\n\n        return voteStrength * voteStrength;\n    }\n\n    /// Events\n    event Voted(address indexed entity, uint8 argumentId, uint8 voteStrength);\n\n\n    /**\n     * @notice Vote for argument `id` with vote strength `voteStrength`\n     * @param id ID of the argument to vote for\n     */\n    function voteFor(uint8 id, uint8 voteStrength) public {\n        require(stage == Stage.Voting);\n        require(voters[msg.sender].joined == true, \"Voter must join first\");\n        uint8 cost = quadraticCost(voteStrength);\n        payForVote(msg.sender, cost);\n        arguments[id].votes += voteStrength;\n        emit Voted(msg.sender, id, voteStrength);\n\n        if (now > (startTime+ votingStageDuration)) {stage = Stage.Process; startTime = now;}\n    }\n\n    /**\n     * @notice Vote against argument `id` with vote strength `voteStrength`\n     * @param id ID of the argument to vote against\n     */\n    function voteAgainst(uint8 id, uint8 voteStrength) public {\n        require(stage == Stage.Voting);\n        require(voters[msg.sender].joined == true, \"Voter must join first\");\n        uint8 cost = quadraticCost(voteStrength);\n        payForVote(msg.sender, cost);\n        arguments[id].votes -= voteStrength;\n        emit Voted(msg.sender, id, voteStrength);\n\n        if (now > (startTime+ votingStageDuration)) {stage = Stage.Process; startTime = now;}\n    }\n\n\n    /**\n     * @notice Advance the stage of debate. Remove method in Prod.\n     */\n    function advanceStage() public {\n        if (stage == Stage.Creation) {\n            stage = Stage.Voting;\n            startTime = now;\n            return;\n        }\n        if (stage == Stage.Voting) {\n            stage = Stage.Process;\n            startTime = now;\n            return;\n        }\n        return;\n    }\n\n}\n",
  "sourcePath": "/media/dhiraj/code/ethereum/ArborVote/contracts/ArborVote.sol",
  "compiler": {
    "name": "solc",
    "version": "0.6.8+commit.0bbfe453.Emscripten.clang"
  },
  "schemaVersion": "3.1.0",
  "updatedAt": "2020-07-02T03:43:22.018Z",
  "networkType": "ethereum",
  "devdoc": {
    "methods": {
      "voteAgainst(uint8,uint8)": {
        "params": {
          "id": "ID of the argument to vote against"
        }
      },
      "voteFor(uint8,uint8)": {
        "params": {
          "id": "ID of the argument to vote for"
        }
      }
    }
  },
  "userdoc": {
    "methods": {
      "advanceStage()": {
        "notice": "Advance the stage of debate. Remove method in Prod."
      },
      "voteAgainst(uint8,uint8)": {
        "notice": "Vote against argument `id` with vote strength `voteStrength`"
      },
      "voteFor(uint8,uint8)": {
        "notice": "Vote for argument `id` with vote strength `voteStrength`"
      }
    }
  }
}