{
  "contractName": "ArborVote",
  "abi": [
    {
      "inputs": [
        {
          "internalType": "string",
          "name": "_text",
          "type": "string"
        }
      ],
      "stateMutability": "nonpayable",
      "type": "constructor"
    },
    {
      "anonymous": false,
      "inputs": [
        {
          "indexed": true,
          "internalType": "address",
          "name": "entity",
          "type": "address"
        },
        {
          "indexed": false,
          "internalType": "uint8",
          "name": "argumentId",
          "type": "uint8"
        },
        {
          "indexed": false,
          "internalType": "uint8",
          "name": "voteStrength",
          "type": "uint8"
        }
      ],
      "name": "Voted",
      "type": "event"
    },
    {
      "inputs": [],
      "name": "INITIALVOTETOKENS",
      "outputs": [
        {
          "internalType": "uint8",
          "name": "",
          "type": "uint8"
        }
      ],
      "stateMutability": "view",
      "type": "function",
      "constant": true
    },
    {
      "inputs": [
        {
          "internalType": "uint8",
          "name": "",
          "type": "uint8"
        }
      ],
      "name": "arguments",
      "outputs": [
        {
          "internalType": "bool",
          "name": "isSupporting",
          "type": "bool"
        },
        {
          "internalType": "int256",
          "name": "votes",
          "type": "int256"
        },
        {
          "internalType": "address",
          "name": "creator",
          "type": "address"
        },
        {
          "internalType": "uint8",
          "name": "ownId",
          "type": "uint8"
        },
        {
          "internalType": "uint8",
          "name": "parentId",
          "type": "uint8"
        },
        {
          "internalType": "string",
          "name": "text",
          "type": "string"
        },
        {
          "internalType": "uint8",
          "name": "unfinalizedChildCount",
          "type": "uint8"
        },
        {
          "internalType": "int256",
          "name": "accumulatedChildVotes",
          "type": "int256"
        },
        {
          "internalType": "bool",
          "name": "isFinalized",
          "type": "bool"
        }
      ],
      "stateMutability": "view",
      "type": "function",
      "constant": true
    },
    {
      "inputs": [],
      "name": "argumentsCount",
      "outputs": [
        {
          "internalType": "uint8",
          "name": "",
          "type": "uint8"
        }
      ],
      "stateMutability": "view",
      "type": "function",
      "constant": true
    },
    {
      "inputs": [],
      "name": "countingStartTime",
      "outputs": [
        {
          "internalType": "uint256",
          "name": "",
          "type": "uint256"
        }
      ],
      "stateMutability": "view",
      "type": "function",
      "constant": true
    },
    {
      "inputs": [],
      "name": "currentStage",
      "outputs": [
        {
          "internalType": "enum ArborVote.Stage",
          "name": "",
          "type": "uint8"
        }
      ],
      "stateMutability": "view",
      "type": "function",
      "constant": true
    },
    {
      "inputs": [],
      "name": "debatingStartTime",
      "outputs": [
        {
          "internalType": "uint256",
          "name": "",
          "type": "uint256"
        }
      ],
      "stateMutability": "view",
      "type": "function",
      "constant": true
    },
    {
      "inputs": [
        {
          "internalType": "address",
          "name": "",
          "type": "address"
        }
      ],
      "name": "voters",
      "outputs": [
        {
          "internalType": "uint8",
          "name": "voteTokens",
          "type": "uint8"
        },
        {
          "internalType": "bool",
          "name": "joined",
          "type": "bool"
        }
      ],
      "stateMutability": "view",
      "type": "function",
      "constant": true
    },
    {
      "inputs": [],
      "name": "votingStartTime",
      "outputs": [
        {
          "internalType": "uint256",
          "name": "",
          "type": "uint256"
        }
      ],
      "stateMutability": "view",
      "type": "function",
      "constant": true
    },
    {
      "inputs": [],
      "name": "updateStage",
      "outputs": [],
      "stateMutability": "nonpayable",
      "type": "function"
    },
    {
      "inputs": [],
      "name": "advanceStage",
      "outputs": [],
      "stateMutability": "nonpayable",
      "type": "function"
    },
    {
      "inputs": [
        {
          "internalType": "uint8",
          "name": "_parentId",
          "type": "uint8"
        },
        {
          "internalType": "string",
          "name": "_text",
          "type": "string"
        },
        {
          "internalType": "bool",
          "name": "_supporting",
          "type": "bool"
        }
      ],
      "name": "addArgument",
      "outputs": [],
      "stateMutability": "nonpayable",
      "type": "function"
    },
    {
      "inputs": [],
      "name": "finalizeLeaves",
      "outputs": [],
      "stateMutability": "nonpayable",
      "type": "function"
    },
    {
      "inputs": [],
      "name": "getVoteTokens",
      "outputs": [
        {
          "internalType": "uint8",
          "name": "",
          "type": "uint8"
        }
      ],
      "stateMutability": "view",
      "type": "function",
      "constant": true
    },
    {
      "inputs": [],
      "name": "join",
      "outputs": [],
      "stateMutability": "nonpayable",
      "type": "function"
    },
    {
      "inputs": [
        {
          "internalType": "uint8",
          "name": "id",
          "type": "uint8"
        },
        {
          "internalType": "uint8",
          "name": "voteStrength",
          "type": "uint8"
        }
      ],
      "name": "voteFor",
      "outputs": [],
      "stateMutability": "nonpayable",
      "type": "function"
    },
    {
      "inputs": [
        {
          "internalType": "uint8",
          "name": "id",
          "type": "uint8"
        },
        {
          "internalType": "uint8",
          "name": "voteStrength",
          "type": "uint8"
        }
      ],
      "name": "voteAgainst",
      "outputs": [],
      "stateMutability": "nonpayable",
      "type": "function"
    }
  ],
  "bytecode": "0x608060405260008060006101000a81548160ff021916908360ff16021790555060008060016101000a81548160ff021916908360038111156200003e57fe5b02179055503480156200005057600080fd5b5060405162001b7038038062001b70833981810160405260208110156200007657600080fd5b81019080805160405193929190846401000000008211156200009757600080fd5b83820191506020820185811115620000ae57600080fd5b8251866001820283011164010000000082111715620000cc57600080fd5b8083526020830192505050908051906020019080838360005b8381101562000102578082015181840152602081019050620000e5565b50505050905090810190601f168015620001305780820380516001836020036101000a031916815260200191505b50604052505050604051806101200160405280600115158152602001600081526020013373ffffffffffffffffffffffffffffffffffffffff168152602001600060ff168152602001600060ff168152602001828152602001600060ff1681526020016000815260200160001515815250600460008060ff16815260200190815260200160002060008201518160000160006101000a81548160ff0219169083151502179055506020820151816001015560408201518160020160006101000a81548173ffffffffffffffffffffffffffffffffffffffff021916908373ffffffffffffffffffffffffffffffffffffffff16021790555060608201518160020160146101000a81548160ff021916908360ff16021790555060808201518160020160156101000a81548160ff021916908360ff16021790555060a08201518160030190805190602001906200028892919062000340565b5060c08201518160040160006101000a81548160ff021916908360ff16021790555060e082015181600501556101008201518160060160006101000a81548160ff02191690831515021790555090505060016000806101000a81548160ff021916908360ff1602179055506001600060016101000a81548160ff021916908360038111156200031357fe5b021790555042600181905550620151804201600281905550620151806002540160038190555050620003ef565b828054600181600116156101000203166002900490600052602060002090601f016020900481019282601f106200038357805160ff1916838001178555620003b4565b82800160010185558215620003b4579182015b82811115620003b357825182559160200191906001019062000396565b5b509050620003c39190620003c7565b5090565b620003ec91905b80821115620003e8576000816000905550600101620003ce565b5090565b90565b61177180620003ff6000396000f3fe608060405234801561001057600080fd5b50600436106101005760003560e01c80637992934b11610097578063b688a36311610066578063b688a363146104be578063c062f578146104c8578063c33f48fd146104d2578063fc62d4c3146104dc57610100565b80637992934b146102e557806387913ddf1461040d578063a3ec138d14610431578063af5c45401461049a57610100565b806325b73353116100d357806325b73353146102335780635bf5d54c1461023d57806360865e4c146102695780636bd0ea85146102a757610100565b806311b254f01461010557806319104b2f146101235780632019a60814610141578063235a7e3a1461015f575b600080fd5b61010d610500565b6040518082815260200191505060405180910390f35b61012b610506565b6040518082815260200191505060405180910390f35b61014961050c565b6040518082815260200191505060405180910390f35b6102316004803603606081101561017557600080fd5b81019080803560ff1690602001909291908035906020019064010000000081111561019f57600080fd5b8201836020820111156101b157600080fd5b803590602001918460018302840111640100000000831117156101d357600080fd5b91908080601f016020809104026020016040519081016040528093929190818152602001838380828437600081840152601f19601f820116905080830192505050505050509192919290803515159060200190929190505050610512565b005b61023b610825565b005b610245610902565b6040518082600381111561025557fe5b60ff16815260200191505060405180910390f35b6102a56004803603604081101561027f57600080fd5b81019080803560ff169060200190929190803560ff169060200190929190505050610915565b005b6102e3600480360360408110156102bd57600080fd5b81019080803560ff169060200190929190803560ff1690602001909291905050506109ba565b005b610314600480360360208110156102fb57600080fd5b81019080803560ff169060200190929190505050610a5f565b604051808a1515151581526020018981526020018873ffffffffffffffffffffffffffffffffffffffff1673ffffffffffffffffffffffffffffffffffffffff1681526020018760ff1660ff1681526020018660ff1660ff168152602001806020018560ff1660ff16815260200184815260200183151515158152602001828103825286818151815260200191508051906020019080838360005b838110156103ca5780820151818401526020810190506103af565b50505050905090810190601f1680156103f75780820380516001836020036101000a031916815260200191505b509a505050505050505050505060405180910390f35b610415610ba6565b604051808260ff1660ff16815260200191505060405180910390f35b6104736004803603602081101561044757600080fd5b81019080803573ffffffffffffffffffffffffffffffffffffffff169060200190929190505050610bab565b604051808360ff1660ff168152602001821515151581526020019250505060405180910390f35b6104a2610be9565b604051808260ff1660ff16815260200191505060405180910390f35b6104c6610c40565b005b6104d0610e26565b005b6104da610f21565b005b6104e4610fdc565b604051808260ff1660ff16815260200191505060405180910390f35b60015481565b60035481565b60025481565b61051a610e26565b6001600381111561052757fe5b600060019054906101000a900460ff16600381111561054257fe5b1461054c57600080fd5b60ff80166000809054906101000a900460ff1660ff1611156105b9576040517f08c379a00000000000000000000000000000000000000000000000000000000081526004018080602001828103825260278152602001806117156027913960400191505060405180910390fd5b6040518061012001604052808215158152602001600081526020013373ffffffffffffffffffffffffffffffffffffffff1681526020016000809054906101000a900460ff1660ff1681526020018460ff168152602001838152602001600060ff1681526020016000815260200160001515815250600460008060009054906101000a900460ff1660ff1660ff16815260200190815260200160002060008201518160000160006101000a81548160ff0219169083151502179055506020820151816001015560408201518160020160006101000a81548173ffffffffffffffffffffffffffffffffffffffff021916908373ffffffffffffffffffffffffffffffffffffffff16021790555060608201518160020160146101000a81548160ff021916908360ff16021790555060808201518160020160156101000a81548160ff021916908360ff16021790555060a0820151816003019080519060200190610724929190611615565b5060c08201518160040160006101000a81548160ff021916908360ff16021790555060e082015181600501556101008201518160060160006101000a81548160ff02191690831515021790555090505060008081819054906101000a900460ff168092919060010191906101000a81548160ff021916908360ff16021790555050600460008460ff1660ff168152602001908152602001600020600401600081819054906101000a900460ff168092919060010191906101000a81548160ff021916908360ff16021790555050600254421115610820576002600060016101000a81548160ff0219169083600381111561081a57fe5b02179055505b505050565b61082d610e26565b60038081111561083957fe5b600060019054906101000a900460ff16600381111561085457fe5b1461085e57600080fd5b600460008060ff16815260200190815260200160002060060160009054906101000a900460ff161561088f57600080fd5b60008090505b6000809054906101000a900460ff1660ff168160ff1610156108ff576000600460008360ff1660ff16815260200190815260200160002060040160009054906101000a900460ff1660ff1614156108f2576108f1816000610fee565b5b8080600101915050610895565b50565b600060019054906101000a900460ff1681565b61091d610e26565b61092782826112ec565b8060ff16600460008460ff1660ff168152602001908152602001600020600101600082825401925050819055503373ffffffffffffffffffffffffffffffffffffffff167f10df707b72348976d52c01397ca22f20bc37fe72ed43fe92c35f65a8f7891b368383604051808360ff1660ff1681526020018260ff1660ff1681526020019250505060405180910390a25050565b6109c2610e26565b6109cc82826112ec565b8060ff16600460008460ff1660ff168152602001908152602001600020600101600082825403925050819055503373ffffffffffffffffffffffffffffffffffffffff167f10df707b72348976d52c01397ca22f20bc37fe72ed43fe92c35f65a8f7891b368383604051808360ff1660ff1681526020018260ff1660ff1681526020019250505060405180910390a25050565b60046020528060005260406000206000915090508060000160009054906101000a900460ff16908060010154908060020160009054906101000a900473ffffffffffffffffffffffffffffffffffffffff16908060020160149054906101000a900460ff16908060020160159054906101000a900460ff1690806003018054600181600116156101000203166002900480601f016020809104026020016040519081016040528092919081815260200182805460018160011615610100020316600290048015610b705780601f10610b4557610100808354040283529160200191610b70565b820191906000526020600020905b815481529060010190602001808311610b5357829003601f168201915b5050505050908060040160009054906101000a900460ff16908060050154908060060160009054906101000a900460ff16905089565b600c81565b60056020528060005260406000206000915090508060000160009054906101000a900460ff16908060000160019054906101000a900460ff16905082565b6000600560003373ffffffffffffffffffffffffffffffffffffffff1673ffffffffffffffffffffffffffffffffffffffff16815260200190815260200160002060000160009054906101000a900460ff16905090565b610c48610e26565b60016003811115610c5557fe5b600060019054906101000a900460ff166003811115610c7057fe5b1480610ca1575060026003811115610c8457fe5b600060019054906101000a900460ff166003811115610c9f57fe5b145b610caa57600080fd5b600560003373ffffffffffffffffffffffffffffffffffffffff1673ffffffffffffffffffffffffffffffffffffffff16815260200190815260200160002060000160019054906101000a900460ff1615610d6d576040517f08c379a000000000000000000000000000000000000000000000000000000000815260040180806020018281038252600f8152602001807f4a6f696e656420616c72656164792e000000000000000000000000000000000081525060200191505060405180910390fd5b6001600560003373ffffffffffffffffffffffffffffffffffffffff1673ffffffffffffffffffffffffffffffffffffffff16815260200190815260200160002060000160016101000a81548160ff021916908315150217905550600c600560003373ffffffffffffffffffffffffffffffffffffffff1673ffffffffffffffffffffffffffffffffffffffff16815260200190815260200160002060000160006101000a81548160ff021916908360ff160217905550565b600354421115610e59576003600060016101000a81548160ff02191690836003811115610e4f57fe5b0217905550610f1f565b60025442118015610e8f575060026003811115610e7257fe5b600060019054906101000a900460ff166003811115610e8d57fe5b105b15610ebd576002600060016101000a81548160ff02191690836003811115610eb357fe5b0217905550610f1e565b60015442118015610ef3575060016003811115610ed657fe5b600060019054906101000a900460ff166003811115610ef157fe5b105b15610f1d576001600060016101000a81548160ff02191690836003811115610f1757fe5b02179055505b5b5b565b60016003811115610f2e57fe5b600060019054906101000a900460ff166003811115610f4957fe5b1415610f7f57426002819055506002600060016101000a81548160ff02191690836003811115610f7557fe5b0217905550610fda565b60026003811115610f8c57fe5b600060019054906101000a900460ff166003811115610fa757fe5b1415610fd957426003819055506003600060016101000a81548160ff02191690836003811115610fd357fe5b02179055505b5b565b6000809054906101000a900460ff1681565b80600460008460ff1660ff168152602001908152602001600020600501600082825401925050819055506001600460008460ff1660ff16815260200190815260200160002060040160009054906101000a900460ff1660ff16111561109f57600460008360ff1660ff168152602001908152602001600020600401600081819054906101000a900460ff16809291906001900391906101000a81548160ff021916908360ff1602179055505061110b565b6000600460008460ff1660ff16815260200190815260200160002060040160006101000a81548160ff021916908360ff1602179055506001600460008460ff1660ff16815260200190815260200160002060060160006101000a81548160ff0219169083151502179055505b6000600460008460ff1660ff16815260200190815260200160002060020160149054906101000a900460ff1660ff161415611177576001600460008060ff16815260200190815260200160002060060160006101000a81548160ff0219169083151502179055506112e8565b6000600460008460ff1660ff16815260200190815260200160002060040160009054906101000a900460ff1660ff1614156112e7576001600460008460ff1660ff16815260200190815260200160002060060160006101000a81548160ff021916908315150217905550600081600460008560ff1660ff1681526020019081526020016000206001015401905060008113156112b057600460008460ff1660ff16815260200190815260200160002060000160009054906101000a900460ff16156112745761126f600460008560ff1660ff16815260200190815260200160002060020160159054906101000a900460ff1682610fee565b6112ab565b6112aa600460008560ff1660ff16815260200190815260200160002060020160159054906101000a900460ff1682600003610fee565b5b6112e5565b6112e4600460008560ff1660ff16815260200190815260200160002060020160159054906101000a900460ff166000610fee565b5b505b5b5050565b60008260ff161415611349576040517f08c379a00000000000000000000000000000000000000000000000000000000081526004018080602001828103825260338152602001806116e26033913960400191505060405180910390fd5b6002600381111561135657fe5b600060019054906101000a900460ff16600381111561137157fe5b1461137b57600080fd5b60011515600560003373ffffffffffffffffffffffffffffffffffffffff1673ffffffffffffffffffffffffffffffffffffffff16815260200190815260200160002060000160019054906101000a900460ff16151514611444576040517f08c379a00000000000000000000000000000000000000000000000000000000081526004018080602001828103825260158152602001807f566f746572206d757374206a6f696e206669727374000000000000000000000081525060200191505060405180910390fd5b600061144f82611460565b905061145b33826114d9565b505050565b600060018260ff161015801561147a575060038260ff1611155b6114cf576040517f08c379a00000000000000000000000000000000000000000000000000000000081526004018080602001828103825260278152602001806116bb6027913960400191505060405180910390fd5b8182029050919050565b8060ff16600560008473ffffffffffffffffffffffffffffffffffffffff1673ffffffffffffffffffffffffffffffffffffffff16815260200190815260200160002060000160009054906101000a900460ff1660ff1610156115a4576040517f08c379a00000000000000000000000000000000000000000000000000000000081526004018080602001828103825260188152602001807f496e73756666696369656e7420766f746520746f6b656e73000000000000000081525060200191505060405180910390fd5b80600560008473ffffffffffffffffffffffffffffffffffffffff1673ffffffffffffffffffffffffffffffffffffffff16815260200190815260200160002060000160008282829054906101000a900460ff160392506101000a81548160ff021916908360ff1602179055505050565b828054600181600116156101000203166002900490600052602060002090601f016020900481019282601f1061165657805160ff1916838001178555611684565b82800160010185558215611684579182015b82811115611683578251825591602001919060010190611668565b5b5090506116919190611695565b5090565b6116b791905b808211156116b357600081600090555060010161169b565b5090565b9056fe566f74696e6720706f7765722063616e206f6e6c792072616e67652066726f6d203120746f2033566f74696e67206469726563746c79206f6e2074686520726f6f7420617267756d656e742069732070726f686962697465642e54686572652063616e2774206265206d6f7265207468616e2032353520617267756d656e74732ea2646970667358221220c030bc7dca0df74a8abf8511ded4d39dde0a2cca061e15c60d1bb71e5a9e096864736f6c63430006080033",
  "immutableReferences": {},
  "source": "//SPDX-License-Identifier: MIT\npragma solidity ^0.6.8;\n\ncontract ArborVote {\n    // State\n    uint8 public argumentsCount = 0;\n\n    enum Stage {\n        Init,\n        Debating,\n        Voting,\n        Counting\n    }\n    Stage public currentStage = Stage.Init;\n\n    uint public debatingStartTime;\n    uint public votingStartTime;\n    uint public countingStartTime;\n\n    uint constant stageDurationBaseValue = 1 days;\n\n    constructor (string memory _text) public {\n        arguments[0] = Argument({ // Argument 0 is the proposal itself\n            isSupporting: true, // makes no sense for the proposal - just set to true\n            votes: 0,\n            creator: msg.sender,\n            ownId: 0,\n            parentId: 0,\n            text: _text,\n            unfinalizedChildCount: 0,\n            accumulatedChildVotes: 0,\n            isFinalized: false\n        });\n        argumentsCount = 1; // start counting at one\n\n        // Define the stage start times\n        currentStage = Stage.Debating;\n        debatingStartTime = now;\n        votingStartTime = now + stageDurationBaseValue;\n        countingStartTime = votingStartTime + stageDurationBaseValue;\n    }\n\n    function updateStage() public {\n        if (now > countingStartTime)\n            currentStage = Stage.Counting;\n        else if (now > votingStartTime && currentStage < Stage.Voting) // prevents going back\n            currentStage = Stage.Voting;\n        else if (now > debatingStartTime && currentStage < Stage.Debating)\n            currentStage = Stage.Debating;\n    }\n\n    /**\n     * @notice Advance the stage of debate. Remove method in Production.\n     */\n    function advanceStage() public {\n        if (currentStage == Stage.Debating) {\n            votingStartTime = now;\n            currentStage = Stage.Voting;\n        }\n        else if (currentStage == Stage.Voting) {\n            countingStartTime = now;\n            currentStage = Stage.Counting;\n        }\n    }\n\n    //Each struct represents a node in tree\n    struct Argument {\n        bool isSupporting;\n        int votes;\n\n        address creator;\n        uint8 ownId;\n        uint8 parentId;\n        string text;\n        uint8 unfinalizedChildCount;\n        int accumulatedChildVotes;  //child votes are zero or higher but we are keeping it int because it's easier\n        bool isFinalized;\n    }\n    mapping ( uint8 => Argument ) public arguments;\n\n    // Getters\n    function addArgument(uint8 _parentId, string memory _text, bool _supporting) public {\n        updateStage();\n        require(currentStage == Stage.Debating);\n        require(argumentsCount <= uint8(255), \"There can't be more than 255 arguments.\");\n\n        // Create a child node and add it to the mapping\n        arguments[argumentsCount] = Argument({\n            isSupporting: _supporting,\n            votes: 0,\n            creator: msg.sender,\n            ownId: argumentsCount,\n            parentId: _parentId,\n            text: _text,\n            unfinalizedChildCount: 0,\n            accumulatedChildVotes: 0,\n            isFinalized: false\n            }\n        );\n        \n        argumentsCount++; //increment afterwards because the proposal itself has index zero\n\n        // change parent state accordingly\n        arguments[_parentId].unfinalizedChildCount++;\n\n        if (now > votingStartTime)\n            currentStage = Stage.Voting;\n    }\n\n    function finalizeLeaves() public  {\n        updateStage();\n        require(currentStage == Stage.Counting);\n        require(!arguments[0].isFinalized);\n\n        for (uint8 i = 0; i < argumentsCount; i++) {\n            if(arguments[i].unfinalizedChildCount == 0)\n                finalize(i,0);\n        }\n    }\n\n\n    /* Finalizes the argument tree up to the highest possible parent argument and stops.\n     * It stops, if the parent arguments contains children that haven't been finalized.\n     * The finalize method can only be called from leaves (unfinalizedChildCount == 0) to ensure traversal from the bottom to the top.\n     */\n    function finalize(uint8 i, int accumulatedChildVotes) internal {\n\n        arguments[i].accumulatedChildVotes += accumulatedChildVotes;\n        if(arguments[i].unfinalizedChildCount > 1)\n            arguments[i].unfinalizedChildCount--;\n        else {\n            arguments[i].unfinalizedChildCount = 0; // all children are finalized\n            arguments[i].isFinalized = true;\n        }\n        // The Argument is then equivalent to a leaf and its cumulative vote weight can be counted for the parent argument.\n\n        if(arguments[i].ownId == 0) { // stop if root 0 is reached.\n            arguments[0].isFinalized = true;\n        } else if(arguments[i].unfinalizedChildCount == 0) { // all children were removed due to finalization\n            arguments[i].isFinalized = true;\n            int accumulatedVotes = arguments[i].votes+int(accumulatedChildVotes);\n\n            if(accumulatedVotes > 0) { // argument is better than neutral\n                if(arguments[i].isSupporting){\n                    finalize(arguments[i].parentId, accumulatedVotes);\n                } else {\n                    finalize(arguments[i].parentId, -accumulatedVotes);\n                }\n            } else { // Don't count bad arguments\n                finalize(arguments[i].parentId, 0);\n            }\n        }\n    }\n\n    /********** VOTING RELATED ************/\n\n    uint8 public constant INITIALVOTETOKENS = 12;\n\n    struct Voter {\n        uint8 voteTokens;\n        bool joined;\n    }\n    mapping (address => Voter) public voters;\n\n    function getVoteTokens() public view returns (uint8) {\n        return voters[msg.sender].voteTokens;\n    }\n\n    function join() external {\n        updateStage();\n        require(currentStage == Stage.Debating || currentStage == Stage.Voting );\n\n        require(!voters[msg.sender].joined, \"Joined already.\");\n        voters[msg.sender].joined = true;\n        voters[msg.sender].voteTokens = INITIALVOTETOKENS;\n    }\n\n    function payForVote(address voterAddr, uint8 cost) internal {\n        require(voters[voterAddr].voteTokens >= cost, \"Insufficient vote tokens\");\n        voters[voterAddr].voteTokens -= cost;\n    }\n\n    function quadraticCost(uint8 voteStrength) internal pure returns(uint8) {\n        // quadratic voting\n        require(voteStrength >= 1 && voteStrength <= 3, \"Voting power can only range from 1 to 3\");\n\n        return voteStrength * voteStrength;\n    }\n\n    /// Events\n    event Voted(address indexed entity, uint8 argumentId, uint8 voteStrength);\n\n    function prepareVotum(uint8 id, uint8 voteStrength) internal {\n        require(id != 0, \"Voting directly on the root argument is prohibited.\");\n        require(currentStage == Stage.Voting);\n        require(voters[msg.sender].joined == true, \"Voter must join first\");\n\n        // pay\n        uint8 cost = quadraticCost(voteStrength);\n        payForVote(msg.sender, cost);\n    }\n\n    /**\n     * @notice Vote for argument `id` with vote strength `voteStrength`\n     * @param id ID of the argument to vote for\n     */\n    function voteFor(uint8 id, uint8 voteStrength) public {\n        updateStage();\n        prepareVotum(id, voteStrength);\n        arguments[id].votes += voteStrength;\n        emit Voted(msg.sender, id, voteStrength);\n    }\n\n    /**\n     * @notice Vote against argument `id` with vote strength `voteStrength`\n     * @param id ID of the argument to vote against\n     */\n    function voteAgainst(uint8 id, uint8 voteStrength) public {\n        updateStage();\n        prepareVotum(id, voteStrength);\n        arguments[id].votes -= voteStrength;\n        emit Voted(msg.sender, id, voteStrength);\n    }\n}\n",
  "sourcePath": "/media/dhiraj/code/ethereum/ArborVote/contracts/ArborVote.sol",
  "compiler": {
    "name": "solc",
    "version": "0.6.8+commit.0bbfe453.Emscripten.clang"
  },
  "schemaVersion": "3.1.0",
  "updatedAt": "2020-07-03T10:38:41.700Z",
  "networkType": "ethereum",
  "devdoc": {
    "methods": {
      "voteAgainst(uint8,uint8)": {
        "params": {
          "id": "ID of the argument to vote against"
        }
      },
      "voteFor(uint8,uint8)": {
        "params": {
          "id": "ID of the argument to vote for"
        }
      }
    }
  },
  "userdoc": {
    "methods": {
      "advanceStage()": {
        "notice": "Advance the stage of debate. Remove method in Production."
      },
      "voteAgainst(uint8,uint8)": {
        "notice": "Vote against argument `id` with vote strength `voteStrength`"
      },
      "voteFor(uint8,uint8)": {
        "notice": "Vote for argument `id` with vote strength `voteStrength`"
      }
    }
  }
}