{
  "contractName": "Debate",
  "abi": [
    {
      "inputs": [
        {
          "internalType": "string",
          "name": "_text",
          "type": "string"
        }
      ],
      "payable": false,
      "stateMutability": "nonpayable",
      "type": "constructor"
    },
    {
      "constant": true,
      "inputs": [],
      "name": "INITIALVOTETOKENS",
      "outputs": [
        {
          "internalType": "uint8",
          "name": "",
          "type": "uint8"
        }
      ],
      "payable": false,
      "stateMutability": "view",
      "type": "function"
    },
    {
      "constant": true,
      "inputs": [
        {
          "internalType": "uint8",
          "name": "",
          "type": "uint8"
        }
      ],
      "name": "arguments",
      "outputs": [
        {
          "internalType": "bool",
          "name": "supporting",
          "type": "bool"
        },
        {
          "internalType": "int256",
          "name": "votes",
          "type": "int256"
        },
        {
          "internalType": "address",
          "name": "creator",
          "type": "address"
        },
        {
          "internalType": "uint8",
          "name": "ownId",
          "type": "uint8"
        },
        {
          "internalType": "uint8",
          "name": "parentId",
          "type": "uint8"
        },
        {
          "internalType": "string",
          "name": "text",
          "type": "string"
        },
        {
          "internalType": "uint256",
          "name": "numberOfChildren",
          "type": "uint256"
        },
        {
          "internalType": "int256",
          "name": "childVotes",
          "type": "int256"
        },
        {
          "internalType": "bool",
          "name": "isFinalized",
          "type": "bool"
        }
      ],
      "payable": false,
      "stateMutability": "view",
      "type": "function"
    },
    {
      "constant": true,
      "inputs": [
        {
          "internalType": "address",
          "name": "",
          "type": "address"
        }
      ],
      "name": "voters",
      "outputs": [
        {
          "internalType": "uint8",
          "name": "voteTokens",
          "type": "uint8"
        },
        {
          "internalType": "bool",
          "name": "joined",
          "type": "bool"
        }
      ],
      "payable": false,
      "stateMutability": "view",
      "type": "function"
    },
    {
      "constant": true,
      "inputs": [
        {
          "internalType": "uint8",
          "name": "id",
          "type": "uint8"
        }
      ],
      "name": "getText",
      "outputs": [
        {
          "internalType": "string",
          "name": "",
          "type": "string"
        }
      ],
      "payable": false,
      "stateMutability": "view",
      "type": "function"
    },
    {
      "constant": false,
      "inputs": [
        {
          "internalType": "uint8",
          "name": "_parentId",
          "type": "uint8"
        },
        {
          "internalType": "string",
          "name": "_text",
          "type": "string"
        },
        {
          "internalType": "bool",
          "name": "_supporting",
          "type": "bool"
        }
      ],
      "name": "addArgument",
      "outputs": [],
      "payable": true,
      "stateMutability": "payable",
      "type": "function"
    },
    {
      "constant": false,
      "inputs": [],
      "name": "finalizeLeafs",
      "outputs": [],
      "payable": false,
      "stateMutability": "nonpayable",
      "type": "function"
    },
    {
      "constant": false,
      "inputs": [],
      "name": "join",
      "outputs": [],
      "payable": false,
      "stateMutability": "nonpayable",
      "type": "function"
    },
    {
      "constant": false,
      "inputs": [
        {
          "internalType": "uint8",
          "name": "i",
          "type": "uint8"
        },
        {
          "internalType": "uint8",
          "name": "voteStrength",
          "type": "uint8"
        }
      ],
      "name": "voteFor",
      "outputs": [],
      "payable": false,
      "stateMutability": "nonpayable",
      "type": "function"
    },
    {
      "constant": false,
      "inputs": [
        {
          "internalType": "uint8",
          "name": "i",
          "type": "uint8"
        },
        {
          "internalType": "uint8",
          "name": "voteStrength",
          "type": "uint8"
        }
      ],
      "name": "voteAgainst",
      "outputs": [],
      "payable": false,
      "stateMutability": "nonpayable",
      "type": "function"
    }
  ],
  "bytecode": "0x60806040526000600260006101000a81548160ff021916908360ff1602179055503480156200002d57600080fd5b506040516200154c3803806200154c833981810160405260208110156200005357600080fd5b81019080805160405193929190846401000000008211156200007457600080fd5b838201915060208201858111156200008b57600080fd5b8251866001820283011164010000000082111715620000a957600080fd5b8083526020830192505050908051906020019080838360005b83811015620000df578082015181840152602081019050620000c2565b50505050905090810190601f1680156200010d5780820380516001836020036101000a031916815260200191505b50604052505050604051806101200160405280600115158152602001600081526020013373ffffffffffffffffffffffffffffffffffffffff168152602001600060ff168152602001600060ff168152602001828152602001600081526020016000815260200160001515815250600160008060ff16815260200190815260200160002060008201518160000160006101000a81548160ff0219169083151502179055506020820151816001015560408201518160020160006101000a81548173ffffffffffffffffffffffffffffffffffffffff021916908373ffffffffffffffffffffffffffffffffffffffff16021790555060608201518160020160146101000a81548160ff021916908360ff16021790555060808201518160020160156101000a81548160ff021916908360ff16021790555060a082015181600301908051906020019062000262929190620002bd565b5060c0820151816004015560e082015181600501556101008201518160060160006101000a81548160ff02191690831515021790555090505060016000806101000a81548160ff021916908360ff160217905550506200036c565b828054600181600116156101000203166002900490600052602060002090601f016020900481019282601f106200030057805160ff191683800117855562000331565b8280016001018555821562000331579182015b828111156200033057825182559160200191906001019062000313565b5b50905062000340919062000344565b5090565b6200036991905b80821115620003655760008160009055506001016200034b565b5090565b90565b6111d0806200037c6000396000f3fe6080604052600436106100865760003560e01c806387913ddf1161005957806387913ddf14610324578063a3ec138d14610355578063affd7729146103cb578063b688a36314610482578063bd98c3191461049957610086565b8063235a7e3a1461008b57806360865e4c1461015f5780636bd0ea85146101aa5780637992934b146101f5575b600080fd5b61015d600480360360608110156100a157600080fd5b81019080803560ff169060200190929190803590602001906401000000008111156100cb57600080fd5b8201836020820111156100dd57600080fd5b803590602001918460018302840111640100000000831117156100ff57600080fd5b91908080601f016020809104026020016040519081016040528093929190818152602001838380828437600081840152601f19601f8201169050808301925050505050505091929192908035151590602001909291905050506104b0565b005b34801561016b57600080fd5b506101a86004803603604081101561018257600080fd5b81019080803560ff169060200190929190803560ff169060200190929190505050610722565b005b3480156101b657600080fd5b506101f3600480360360408110156101cd57600080fd5b81019080803560ff169060200190929190803560ff16906020019092919050505061076b565b005b34801561020157600080fd5b506102316004803603602081101561021857600080fd5b81019080803560ff1690602001909291905050506107b4565b604051808a1515151581526020018981526020018873ffffffffffffffffffffffffffffffffffffffff1673ffffffffffffffffffffffffffffffffffffffff1681526020018760ff1660ff1681526020018660ff1660ff1681526020018060200185815260200184815260200183151515158152602001828103825286818151815260200191508051906020019080838360005b838110156102e15780820151818401526020810190506102c6565b50505050905090810190601f16801561030e5780820380516001836020036101000a031916815260200191505b509a505050505050505050505060405180910390f35b34801561033057600080fd5b506103396108ee565b604051808260ff1660ff16815260200191505060405180910390f35b34801561036157600080fd5b506103a46004803603602081101561037857600080fd5b81019080803573ffffffffffffffffffffffffffffffffffffffff1690602001909291905050506108f3565b604051808360ff1660ff168152602001821515151581526020019250505060405180910390f35b3480156103d757600080fd5b50610407600480360360208110156103ee57600080fd5b81019080803560ff169060200190929190505050610931565b6040518080602001828103825283818151815260200191508051906020019080838360005b8381101561044757808201518184015260208101905061042c565b50505050905090810190601f1680156104745780820380516001836020036101000a031916815260200191505b509250505060405180910390f35b34801561048e57600080fd5b506104976109ef565b005b3480156104a557600080fd5b506104ae610b6b565b005b60ff80166000809054906101000a900460ff1660ff16111561051d576040517f08c379a000000000000000000000000000000000000000000000000000000000815260040180806020018281038252602a815260200180611172602a913960400191505060405180910390fd5b6002600081819054906101000a900460ff168092919060010191906101000a81548160ff021916908360ff160217905550506040518061012001604052808215158152602001600081526020013373ffffffffffffffffffffffffffffffffffffffff1681526020016000809054906101000a900460ff1660ff1681526020018460ff16815260200183815260200160008152602001600081526020016000151581525060016000600260009054906101000a900460ff1660ff1660ff16815260200190815260200160002060008201518160000160006101000a81548160ff0219169083151502179055506020820151816001015560408201518160020160006101000a81548173ffffffffffffffffffffffffffffffffffffffff021916908373ffffffffffffffffffffffffffffffffffffffff16021790555060608201518160020160146101000a81548160ff021916908360ff16021790555060808201518160020160156101000a81548160ff021916908360ff16021790555060a08201518160030190805190602001906106b8929190611039565b5060c0820151816004015560e082015181600501556101008201518160060160006101000a81548160ff021916908315150217905550905050600160008460ff1660ff16815260200190815260200160002060040160008154809291906001019190505550505050565b600061072d82610bcf565b90506107393382610c48565b8160ff16600160008560ff1660ff16815260200190815260200160002060010160008282540192505081905550505050565b600061077682610bcf565b90506107823382610c48565b8160ff16600160008560ff1660ff16815260200190815260200160002060010160008282540392505081905550505050565b60016020528060005260406000206000915090508060000160009054906101000a900460ff16908060010154908060020160009054906101000a900473ffffffffffffffffffffffffffffffffffffffff16908060020160149054906101000a900460ff16908060020160159054906101000a900460ff1690806003018054600181600116156101000203166002900480601f0160208091040260200160405190810160405280929190818152602001828054600181600116156101000203166002900480156108c55780601f1061089a576101008083540402835291602001916108c5565b820191906000526020600020905b8154815290600101906020018083116108a857829003601f168201915b5050505050908060040154908060050154908060060160009054906101000a900460ff16905089565b600c81565b60036020528060005260406000206000915090508060000160009054906101000a900460ff16908060000160019054906101000a900460ff16905082565b6060600160008360ff1660ff1681526020019081526020016000206003018054600181600116156101000203166002900480601f0160208091040260200160405190810160405280929190818152602001828054600181600116156101000203166002900480156109e35780601f106109b8576101008083540402835291602001916109e3565b820191906000526020600020905b8154815290600101906020018083116109c657829003601f168201915b50505050509050919050565b600360003373ffffffffffffffffffffffffffffffffffffffff1673ffffffffffffffffffffffffffffffffffffffff16815260200190815260200160002060000160019054906101000a900460ff1615610ab2576040517f08c379a000000000000000000000000000000000000000000000000000000000815260040180806020018281038252600f8152602001807f4a6f696e656420616c72656164792e000000000000000000000000000000000081525060200191505060405180910390fd5b6001600360003373ffffffffffffffffffffffffffffffffffffffff1673ffffffffffffffffffffffffffffffffffffffff16815260200190815260200160002060000160016101000a81548160ff021916908315150217905550600c600360003373ffffffffffffffffffffffffffffffffffffffff1673ffffffffffffffffffffffffffffffffffffffff16815260200190815260200160002060000160006101000a81548160ff021916908360ff160217905550565b60008090505b600260009054906101000a900460ff1660ff168160ff161015610bcc576000600160008360ff1660ff168152602001908152602001600020600401541415610bbf57610bbe816000610d84565b5b8080600101915050610b71565b50565b600060018260ff1610158015610be9575060038260ff1611155b610c3e576040517f08c379a000000000000000000000000000000000000000000000000000000000815260040180806020018281038252602781526020018061114b6027913960400191505060405180910390fd5b8182029050919050565b8060ff16600360008473ffffffffffffffffffffffffffffffffffffffff1673ffffffffffffffffffffffffffffffffffffffff16815260200190815260200160002060000160009054906101000a900460ff1660ff161015610d13576040517f08c379a00000000000000000000000000000000000000000000000000000000081526004018080602001828103825260188152602001807f496e73756666696369656e7420766f746520746f6b656e73000000000000000081525060200191505060405180910390fd5b80600360008473ffffffffffffffffffffffffffffffffffffffff1673ffffffffffffffffffffffffffffffffffffffff16815260200190815260200160002060000160008282829054906101000a900460ff160392506101000a81548160ff021916908360ff1602179055505050565b610d8c6110b9565b600160008460ff1660ff168152602001908152602001600020604051806101200160405290816000820160009054906101000a900460ff16151515158152602001600182015481526020016002820160009054906101000a900473ffffffffffffffffffffffffffffffffffffffff1673ffffffffffffffffffffffffffffffffffffffff1673ffffffffffffffffffffffffffffffffffffffff1681526020016002820160149054906101000a900460ff1660ff1660ff1681526020016002820160159054906101000a900460ff1660ff1660ff168152602001600382018054600181600116156101000203166002900480601f016020809104026020016040519081016040528092919081815260200182805460018160011615610100020316600290048015610eff5780601f10610ed457610100808354040283529160200191610eff565b820191906000526020600020905b815481529060010190602001808311610ee257829003601f168201915b5050505050815260200160048201548152602001600582015481526020016006820160009054906101000a900460ff1615151515815250509050818160e00181815101915081815250508060c001805180919060019003815250506000816060015160ff161415610f705750611035565b60008160c001511415611033576001816101000190151590811515815250506000828260200151019050600081131561102157816000015115610fe557610fe0600160008660ff1660ff16815260200190815260200160002060020160159054906101000a900460ff1682610d84565b61101c565b61101b600160008660ff1660ff16815260200190815260200160002060020160159054906101000a900460ff1682600003610d84565b5b611031565b61103082608001516000610d84565b5b505b505b5050565b828054600181600116156101000203166002900490600052602060002090601f016020900481019282601f1061107a57805160ff19168380011785556110a8565b828001600101855582156110a8579182015b828111156110a757825182559160200191906001019061108c565b5b5090506110b59190611125565b5090565b60405180610120016040528060001515815260200160008152602001600073ffffffffffffffffffffffffffffffffffffffff168152602001600060ff168152602001600060ff1681526020016060815260200160008152602001600081526020016000151581525090565b61114791905b8082111561114357600081600090555060010161112b565b5090565b9056fe566f74696e6720706f7765722063616e206f6e6c792072616e67652066726f6d203120746f203354686572652063616e2774206265206d6f7265207468616e2032353520737562617267756d656e74732ea265627a7a72315820022dcfc6f116efc07e6b0ee2d3bbcc81f55780954ada84c03669ac4f39ef006d64736f6c63430005100032",
  "source": "pragma solidity >=0.4.22 <0.7.0;\n\n\ncontract Debate {\n    uint8 public constant INITIALVOTETOKENS = 12;\n    uint8 argumentsCount;\n\n    constructor (string memory _text) public{\n        arguments[0] = Argument({ // Argument 0 is the debate itself\n            // makes no sense in this context - just use some default values\n            supporting: true,\n            votes: 0,\n            creator: msg.sender,\n            ownId: 0,\n            parentId: 0,\n            text: _text,\n            numberOfChildren: 0,\n            childVotes: 0,\n            isFinalized: false\n        });\n        argumentsCount = 1; // start counting at one\n    }\n\n    //Each struct represents a node is the discussion tree\n    struct Argument {\n        bool supporting;\n        int votes;\n\n        address creator;\n        uint8 ownId;\n        uint8 parentId;\n        string text;\n        uint numberOfChildren;\n        int childVotes;  //child votes are zero or higher but we are keeping int because it's easier\n        bool isFinalized;\n\n    }\n    mapping ( uint8 => Argument ) public arguments;\n    uint8 totalArgumentsCount = 0;\n\n    function getText(uint8 id) public view returns (string memory) {\n        return arguments[id].text;\n    }\n\n    function addArgument(uint8 _parentId, string memory _text, bool _supporting) public payable {\n        require(argumentsCount <= uint8(255), \"There can't be more than 255 subarguments.\");\n\n        totalArgumentsCount++; //incrementing mapping uint first so that the debate thesis is the zero index\n\n        // Create a child node and add to mapping of nodes\n        arguments[totalArgumentsCount] = Argument({\n            supporting: _supporting,\n            votes: 0,\n            creator: msg.sender,\n            ownId: argumentsCount,\n            parentId: _parentId,\n            text: _text,\n            numberOfChildren: 0,\n            childVotes: 0,\n            isFinalized: false\n            }\n        );\n\n        // change parent state accordingly\n        arguments[_parentId].numberOfChildren++;\n    }\n\n    function finalizeLeafs() public  {\n        for (uint8 i = 0; i < totalArgumentsCount; i++) {\n            if(arguments[i].numberOfChildren == 0)\n                finalize(i,0);\n        }\n    }\n\n    /*\n    Calls the subArgumentIsFinalized() in the hierarchy level.\n    Can only be called from leafs to ensure traversal from bottom to the top.\n    */\n    function finalize(uint8 i, int childVotes) internal {\n\n        Argument memory argument = arguments[i];\n        argument.childVotes += childVotes;\n        argument.numberOfChildren--;\n\n        if(argument.ownId == 0) { // stop if argument 0 is reached.\n            return;\n        } else if(argument.numberOfChildren == 0) { // all children were removed due to finalization\n            argument.isFinalized = true;\n            int accumulatedVotes = argument.votes+int(childVotes);\n\n            if(accumulatedVotes > 0) { // argument is better than neutral\n                if(argument.supporting){\n                    finalize(arguments[i].parentId, accumulatedVotes);\n                } else {\n                    finalize(arguments[i].parentId, -accumulatedVotes);\n                }\n            } else { // Don't count bad arguments\n                finalize(argument.parentId, 0);\n            }\n        }\n    }\n\n    /********** VOTING RELATED ************/\n    struct Voter {\n        uint8 voteTokens;\n        bool joined;\n    }\n    mapping (address => Voter) public voters;\n\n    function join() external {\n        require(!voters[msg.sender].joined, \"Joined already.\");\n        voters[msg.sender].joined = true;\n        voters[msg.sender].voteTokens = INITIALVOTETOKENS;\n    }\n\n    function payForVote(address voterAddr, uint8 cost) internal {\n        require(voters[voterAddr].voteTokens >= cost, \"Insufficient vote tokens\");\n        voters[voterAddr].voteTokens -= cost;\n    }\n\n    function quadraticCost(uint8 voteStrength) internal pure returns(uint8) {\n        // quadratic voting\n        require(voteStrength >= 1 && voteStrength <= 3, \"Voting power can only range from 1 to 3\");\n\n        return voteStrength*voteStrength;\n    }\n\n    function voteFor(uint8 i, uint8 voteStrength) public {\n        uint8 cost = quadraticCost(voteStrength);\n        payForVote(msg.sender, cost);\n        arguments[i].votes += voteStrength;\n    }\n\n    function voteAgainst(uint8 i, uint8 voteStrength) public {\n        uint8 cost = quadraticCost(voteStrength);\n        payForVote(msg.sender, cost);\n        arguments[i].votes -= voteStrength;\n    }\n}\n",
  "sourcePath": "/home/derek/Documents/ArborVote/contracts/Debate.sol",
  "compiler": {
    "name": "solc",
    "version": "0.5.16+commit.9c3226ce.Emscripten.clang"
  },
  "schemaVersion": "3.0.23",
  "updatedAt": "2020-03-01T01:40:17.199Z",
  "devdoc": {
    "methods": {}
  },
  "userdoc": {
    "methods": {}
  }
}