{
  "contractName": "Todos",
  "abi": [
    {
      "constant": false,
      "inputs": [
        {
          "internalType": "bytes32",
          "name": "todo",
          "type": "bytes32"
        }
      ],
      "name": "addTodo",
      "outputs": [],
      "payable": false,
      "stateMutability": "nonpayable",
      "type": "function"
    },
    {
      "constant": true,
      "inputs": [],
      "name": "getTodos",
      "outputs": [
        {
          "internalType": "bytes32[]",
          "name": "",
          "type": "bytes32[]"
        }
      ],
      "payable": false,
      "stateMutability": "view",
      "type": "function"
    }
  ],
  "bytecode": "0x608060405234801561001057600080fd5b50610184806100206000396000f3fe608060405234801561001057600080fd5b50600436106100365760003560e01c8063c33926cb1461003b578063da2f64601461009a575b600080fd5b6100436100c8565b6040518080602001828103825283818151815260200191508051906020019060200280838360005b8381101561008657808201518184015260208101905061006b565b505050509050019250505060405180910390f35b6100c6600480360360208110156100b057600080fd5b8101908080359060200190929190505050610120565b005b6060600080548060200260200160405190810160405280929190818152602001828054801561011657602002820191906000526020600020905b815481526020019060010190808311610102575b5050505050905090565b60008190806001815401808255809150509060018203906000526020600020016000909192909190915055505056fea265627a7a72315820130e574f7612b9a6984c332a5214d5c66e65c0babf0c4d6ea771f29b90d1db3564736f6c63430005100032",
  "source": "pragma solidity >=0.4.22 <0.7.0;\n\ncontract Todos {\n    bytes32[] todos;\n\n\n    function addTodo(bytes32 todo) public {\n        todos.push(todo);\n    }\n\n    function getTodos() public view returns (bytes32[] memory) {\n        return todos;\n    }\n}\n",
  "sourcePath": "/home/derek/Documents/JenkyVote/contracts/Todos.sol",
  "compiler": {
    "name": "solc",
    "version": "0.5.16+commit.9c3226ce.Emscripten.clang"
  },
  "schemaVersion": "3.0.23",
  "updatedAt": "2020-03-01T00:28:05.502Z",
  "networkType": "ethereum",
  "devdoc": {
    "methods": {}
  },
  "userdoc": {
    "methods": {}
  }
}